:040000000C943A0022
:14005400000000000000000000000000000000000000000098
:0B00680000000000000000000000008D
:14007400CFE5D4E0CDBFDEBFC051D0400AEA08830024EFE74D
:14008800F0E010E0EF37F10711F00192FBCF0083E4E5F0E00C
:14009C00A0E6B0E010E0E337F10721F0C89531960D92F9CF9C
:1400B0000E948900FFCF222426BE8EE080B921B822B884E05B
:1400C40086BF089584EA86BF26B627FEFDCF089584E986BF77
:1400D8000895A998A89A02E010E0BCD0A898A99A01E010E042
:1400EC00B7D0089584B3836084BBA99AA89A02E010E0AED0AE
:14010000A998A89801E010E0A9D084B38C7F84BB0895F89476
:14011400D1D084B38C7F84BB85B3836085BBC9DF789439C0AD
:14012800CFDF21E00AE551D00034A9F46AD00093780067D0B7
:14013C000093790064D000937A0061D000937B005ED0009362
:140150007C005BD000937D0063D000937E00BADF00E8B1D09E
:1401640000917800AED000917900ABD000917A00A8D0009167
:140178007B00A5D000917C00A2D000917D009FD000917E0078
:14018C009CD008E010E083D00CE211E061D0C6CF08950E94E4
:1401A0009201622F402F90DF2227042F12D008E622D007E222
:1401B40020D00BE21ED003E81CD005E31AD007E918D000E10A
:1401C80016D084DF0E9486010895222321F0202E222A23B849
:1401DC0003C0802F8E7F83B984E886BF26B627FEFDCF0000D6
:1401F00001B1087F089503B984E886BF26B627FEFDCF0000EB
:1402040001B1087F089584E886BF86B78F70806C86BF26B616
:1402180027FEFDCF03B1089584E886BF86B78F70806886BF76
:14022C0026B627FEFDCF03B108950E949201602F442744DF4E
:1402400021E0062FC6DF003411F4DFDF402F42DF042F0E9473
:1402540086010895000008950E949401A80101C0F9DF1A0141
:14026800415050402220D1F73320C1F70E949701089502C0B3
:14027C000150104000300107D9F7089509EC14E002C001502C
:14029000104000300107D9F708950E949401A80101C0F2DFF3
:1402A4001A01415050402220D1F73320C1F70E94970108951E
:1402B80088E98AB987E089B986E880BD08955D9BFECF0CB903
:1402CC0008950E949401A80104C0FA010191AF01F4DFFA01D2
:1402E00020802220C1F70E94970108950E949001622F58017C
:1402F400442705C0F50101915F01E3DF43954617C8F30E948A
:1403080089010895E2E00C949801E4E00C949801FA92EA92BA
:14031C00DA92CA92BA92AA927A936A935A934A930895E1E04B
:1403300049915991E0FD089569917991E1FD0895A990B9907A
:12034400E2FD0895C990D990E3FD0895E990F99008954D
:00000001FF
