:08002B003099FDC2998F992262
:1005B7000A493243202753656E642053544127204C
:1005C7006572726F72000A493243202753656E6461
:1005D70020534C412B5727206572726F72000A49CE
:1005E7003243202753656E642049324320486967A8
:1005F70068204279746520416464726573732720AB
:100607006572726F72000A493243202753656E6420
:1006170020493243204C6F7720427974652041642A
:10062700647265737327206572726F72000A4932AC
:1006370043202753656E6420534C412B5227206576
:1006470072726F72000A49324320274E6F2041634E
:100657006B27206572726F72000A49324320275256
:10066700656164206461746127206572726F72002E
:100677000A493243202741636B27206572726F72E4
:10068700000A4932432052656164206572726F72B5
:100697002C20746573742073746F70000A49324399
:1006A700202753656E6420486967682062797465FE
:1006B700206164647265737327206572726F7200BC
:1006C7000A493243202753656E64204C6F772062B6
:1006D700797465206164647265737327206572722B
:1006E7006F72000A493243202757726974652044A4
:1006F70061746127206572726F72000A4932432064
:100707002757616974205265616479272065727281
:100717006F72000A49324320577269746520657207
:10072700726F722C20746573742073746F70000A73
:100737002031323334350061626364650D0A003657
:07074700373839300D0A00BC
:0800700041004C0041006F004B
:1012200090001EEBF0A3EAF0A3E9F090001EE0FBB3
:10123000A3E0FAA3E0F91203E3601890001EE0A314
:10124000E475F00112044BA9F0FA1203E3FF121245
:041250006C80D822B4
:1000190043B30843B40843B31043B41075BE09D2BF
:02002900C622ED
:1000360053B3F753B4F753B3EF53B4EFD294D29309
:10004600A2AF920A75C7AA75C75575910143B2400A
:1000560075C7AA75C755E4F591A20A92AF439B01ED
:0A006600D2AF75C1A0D2C6D2C222EB
:10000300E5BD7011D209D2C4C2C330C308C2C6D27F
:06001300C6C2C3C2C622F2
:05074E00900000EDF039
:10075300EF75F020A4FF900002E5F0F0A3EFF0D2D4
:10076300C5C2C330C3FDE5BD6408600ED2097BFF7B
:100773007A0579B71200E902088775BCA0C2C5C221
:10078300C330C3FDE5BD6418600ED2097BFF7A0553
:1007930079CD1200E9020887900002E0F5BCC2C3DC
:1007A30030C3FDE5BD6428600ED2097BFF7A05796D
:1007B300E51200E9020887900002E0A3E0F5BCC25D
:1007C300C330C3FDE5BD6428600ED2097BFF7A0602
:1007D300790D1200E9020887D2C5C2C330C3FDE513
:1007E300BD6410600ED2097BFF7A0579B71200E968
:1007F300020887C2C575BCA1C2C330C3FDE5BD6491
:1008030040600DD2097BFF7A0679341200E98074C7
:10081300E4900001F0900001E0C39420503BD2C269
:10082300C2C330C3FDE5BD6450600DD2097BFF7ABE
:1008330006794C1200E9804C900000E065BC600D25
:10084300D2097BFF7A0679601200E98037900000B5
:10085300E0F4F0A3E004F080BCC2C2C2C330C3FD25
:10086300E5BD6458600DD2097BFF7A0679771200E3
:10087300E98011C2C3D2C430C40A1200033009F79D
:10088300800280F330090E1200037BFF7A06798819
:050893001200E9C2099A
:01089800223D
:0509BF00900004EDF0C2
:1009C400EF75F020A4FF900006E5F0F0A3EFF0D25D
:1009D400C5C2C330C3FDE5BD6408600ED2097BFF08
:1009E4007A0579B71200E9020ACFC2C575BCA0C264
:1009F400C330C3FDE5BD6418600ED2097BFF7A05E0
:100A040079CD1200E9020ACF900006E0F5BCC2C31A
:100A140030C3FDE5BD6428600ED2097BFF7A0679F8
:100A2400A31200E9020ACF900006E0A3E0F5BCC2DD
:100A3400C330C3FDE5BD6428600ED2097BFF7A068E
:100A440079C71200E9020ACFE4900005F09000058E
:100A5400E0C39420502A900004E0F5BCC2C330C324
:100A6400FDE5BD6428600DD2097BFF7A0679EA12A0
:100A740000E98057900004E0F4F0A3E004F080CD96
:100A8400D2C4C2C330C40A1200033009F7803C80C8
:100A9400F3D2C5C2C330C3FDE5BD6408600DD209FD
:100AA4007BFF7A0779021200E98020C2C575BCA0D9
:100AB400C2C330C3FDE5BDB418C6D2C4C2C330C47A
:100AC4000A1200033009F7800280F330090E120085
:0C0AD40003C2097BFF7A07791A1200E9BF
:010AE00022F3
:0E0AE10090001EEFF0A3EBF0A3EAF0A3E9F003
:100AEF00D2C5C2C330C3FDE5BD6408600ED2097B19
:100AFF00FF7A0579B71200E9020BDBC2C575BCA0FE
:100B0F00C2C330C3FDE5BD6418600ED2097BFF7A06
:100B1F000579CD1200E9020BDB90001EE0F5BCC297
:100B2F00C330C3FDE5BD6428600ED2097BFF7A0692
:100B3F0079A31200E9020BDBE4900023F09000226E
:100B4F00E0FFA3E0C39F503990001FE0FBA3E0FA42
:100B5F00A3E0F9900023E0F5827583001203FCF502
:100B6F00BCC2C330C3FDE5BD6428600DD2097BFF55
:100B7F007A0679EA1200E98053900023E004F080AE
:100B8F00BCD2C4C2C330C40A1200033009F7803C80
:100B9F0080F3D2C5C2C330C3FDE5BD6408600DD27A
:100BAF00097BFF7A0779021200E98020C2C575BC64
:100BBF00A0C2C330C3FDE5BDB418C6D2C4C2C33092
:100BCF00C40A1200033009F7800280F330090E12B5
:0D0BDF000003C2097BFF7A07791A1200E9B2
:010BEC0022E6
:0E08990090001EEFF0A3EBF0A3EAF0A3E9F04D
:1008A700D2C5C2C330C3FDE5BD6408600ED2097B63
:1008B700FF7A0579B71200E90209AD75BCA0C2C578
:1008C700C2C330C3FDE5BD6418600ED2097BFF7A51
:1008D7000579CD1200E90209AD90001EE0F5BCC212
:1008E700C330C3FDE5BD6428600ED2097BFF7A05DE
:1008F70079E51200E90209ADD2C5C2C330C3FDE5EF
:10090700BD6410600ED2097BFF7A0579B71200E942
:100917000209ADC2C575BCA1C2C330C3FDE5BD6444
:1009270040600DD2097BFF7A0679341200E98076A0
:10093700E4900023F0900022E0FFA3E0C39F503B28
:10094700D2C2C2C330C3FDE5BD6450600DD2097B7E
:10095700FF7A06794C1200E9804C90001FE0FBA358
:10096700E0FAA3E0F9900023E0F582758300E5BC87
:10097700120429900023E004F080BAC2C2C2C33037
:10098700C3FDE5BD6458600DD2097BFF7A06797710
:100997001200E98011C2C3D2C430C40A1200033066
:1009A70009F7800280F330090E1200037BFF7A06F5
:0709B70079881200E9C20972
:0109BE002216
:03003300020BEDD0
:100BED00C0E0C083C082C0D075D000C000C007AFC8
:100BFD00BDEF12055F0C24000C29600C2D680C3123
:100C0D00800C53880C6CA00C70A80C8AB80CA4C076
:100C1D000CA8C800000CAAD2C4020CAAD2C2807DB6
:100C2D00C28280FE90006FE0244DF582E43400F521
:100C3D0083E5BCF090006FE004F0E0B42204C2C282
:100C4D00805BD2C2805790006FE0244DF582E43472
:100C5D0000F583E5BCF090006FE4F0D2C2803ED287
:100C6D00C2803A90006FE0244DF582E43400F583A4
:100C7D00E0F5BC90006FE004F0D2C2802090006FD0
:100C8D00E0244DF582E43400F583E0F5BC90006F6F
:100C9D00E004F0D2C28006D2C28002D2C2C2C3D05A
:0C0CAD0007D000D0D0D082D083D0E0323D
:100D6500E490001DF0FF7EC27D01FC120E88D2F9D1
:100D7500D2AF7BFF7A0779361212201200197BFF5A
:100D85007A07793E9000227408F0E4FF120AE17FA9
:100D95000A7E007D007C00120F627B017A007909D2
:100DA5009000227408F0E4FF1208997B017A00791B
:100DB500091212207FE87E037D007C00120F627B02
:100DC500FF7A0779469000227408F0E4FF120AE1E1
:100DD5007F0A7E007D007C00120F627B017A00791C
:100DE500099000227408F0E4FF1208997B017A004B
:100DF50079091212207FE87E037D007C00120F62C4
:030E0500020D8358
:010E080022C7
:03007B0002119AD5
:10119A00C0E0C0F0C083C082C0D075D000C000C01B
:1011AA0001C002C003C004C005C006C00730F80D64
:1011BA00C2F890004CE59AF0E0FF12126C30F90286
:1011CA00C2F9D007D006D005D004D003D002D0018E
:0D11DA00D000D0D0D082D083D0F0D0E03251
:100F0200900070120553538EF75389F0438901D232
:100F12008CE4FFFEFDFC900070E0F8A3E0F9A3E092
:100F2200FAA3E0FBC312052F6033758AF3758CFFB9
:100F3200308DFDC28D900070E0FCA3E0FDA3E0FEC9
:100F4200A3E0FF74FFEF24FFFFEE34FFFEED34FF5A
:100F5200FDEC34FFFC90007012055380B4C28C2269
:1010E000900074120553538EF7438901D28CE4FFAC
:1010F000FEFDFC900074E0F8A3E0F9A3E0FAA3E0A1
:10110000FBC312052F6033758A7E758CFF308DFD11
:10111000C28D900074E0FCA3E0FDA3E0FEA3E0FF1D
:1011200074FFEF24FFFFEE34FFFEED34FFFDEC34DF
:0D113000FFFC90007412055380B4C28C22A5
:100F620090001E120553538EF75389F0438901D224
:100F72008CE4FFFEFDFC90001EE0F8A3E0F9A3E084
:100F8200FAA3E0FBC312052F6033758ACA758CFA87
:100F9200308DFDC28D90001EE0FCA3E0FDA3E0FEBB
:100FA200A3E0FF74FFEF24FFFFEE34FFFEED34FFFA
:100FB200FDEC34FFFC90001E12055380B4C28C225B
:10113D00900078120553538EEF438910D28EE4FF41
:10114D00FEFDFC900078E0F8A3E0F9A3E0FAA3E03F
:10115D00FBC312052F6033758BEA758DCB308FFD78
:10116D00C28F900078E0FCA3E0FDA3E0FEA3E0FFBA
:10117D0074FFEF24FFFFEE34FFFEED34FFFDEC3482
:0D118D00FFFC90007812055380B4C28E2242
:100FC20090007C12055353C9BF53C9DF43C910D2E5
:100FD200CAE4FFFEFDFC90007CE0F8A3E0F9A3E088
:100FE200FAA3E0FBC312052F603375CC3075CDF840
:100FF20030CFFDC2CF90007CE0FCA3E0FDA3E0FE79
:10100200A3E0FF74FFEF24FFFFEE34FFFEED34FF99
:10101200FDEC34FFFC90007C12055380B4C2CA225E
:1010220090008112055375C40743C408E4FFFEFD16
:10103200FC900081E0F8A3E0F9A3E0FAA3E0FBC38F
:1010420012052F603675C52C75C6CFE5C430E4FB9A
:1010520053C4EF900081E0FCA3E0FDA3E0FEA3E017
:10106200FF74FFEF24FFFFEE34FFFEED34FFFDECD3
:0F10720034FFFC90008112055380B153C4F72264
:1010810090008512055375C40743C408E4FFFEFDB3
:10109100FC900085E0F8A3E0F9A3E0FAA3E0FBC32C
:1010A10012052F603675C5D875C6FFE5C430E4FB5F
:1010B10053C4EF900085E0FCA3E0FDA3E0FEA3E0B4
:1010C100FF74FFEF24FFFFEE34FFFEED34FFFDEC74
:0F10D10034FFFC90008512055380B153C4F72201
:1011E70053B1BF53B2BF53B17F53B27F75985043CA
:1011F7008920438780438E1053C4DFAB07AA06A913
:1012070005A8047F407E427D0F7C0012049DEF04F9
:09121700F404F58DD28ED2992267
:100E090090008912055353B1BF53B2BF53B17F53F9
:100E1900B27F75985043878053C4F843C42090002B
:100E290089E0F8A3E0F9A3E0FAA3E0FB7F407E4262
:100E39007D0F7C0012049DC374FF9FFF74FF9EFE0B
:100E4900E49DFDE49CFC78081205408FC69000895A
:100E5900E0F8A3E0F9A3E0FAA3E0FB7F407E427D3E
:100E69000F7C0012049DC374FF9FFF74FF9EFEE474
:0F0E79009DFDE49CFCEFE48FC543C408D2992291
:071254003098FDAF99C2982C
:01125B002270
:08125C00C2998F993099FD221F
:100E880090001E12055353B1FB53B2FB53B3BF532B
:100E9800B4BF75F85075C40853C4DF90001EE0F85D
:100EA800A3E0F9A3E0FAA3E0FB7F407E427D0F7C3C
:100EB8000012049DC374FF9FFF74FF9EFEE49DFD16
:100EC800E49CFC78081205408FC690001EE0F8A349
:100ED800E0F9A3E0FAA3E0FB7F407E427D0F7C00AF
:100EE80012049DC374FF9FFF74FF9EFEE49DFDE402
:0A0EF8009CFCEFE48FC543C4082200
:0712640030F8FDAF9AC2F85B
:01126B002260
:08126C00C2F98F9A30F9FD224E
:03000000020CB936
:100CB90075C7AA75C75575FD5A75C7AA75C75575FC
:100CC900FDA5787FE4F6D8FD9000007FFF7E03E460
:0C0CD900F0A3DFFCDEFA758180020D2024
:100CE500020D65E493A3F8E493A34003F68001F2B3
:100CF50008DFF48029E493A3F85407240CC8C33310
:100D0500C4540F4420C8834004F456800146F6DFDE
:100D1500E4800B0102040810204080900070E47EFE
:100D2500019360BCA3FF543F30E509541FFEE493D3
:100D3500A360010ECF54C025E060A840B8E493A39A
:100D4500FAE493A3F8E493A3C8C582C8CAC583CAC5
:100D5500F0A3C8C582C8CAC583CADFE9DEE780BE7D
:010078000087
:1003E300BB010689828A83E0225002E722BBFE0218
:0903F300E32289828A83E493224B
:1003FC00BB010CE58229F582E5833AF583E02250B6
:10040C0006E92582F8E622BBFE06E92582F8E222FF
:0D041C00E58229F582E5833AF583E4932219
:10042900F8BB010DE58229F582E5833AF583E8F009
:10043900225006E92582C8F622BBFE05E92582C8B5
:02044900F2229D
:10044B00A3F8E0C5F025F0F0E58215827002158364
:06045B00E0C838F0E822C1
:1004610075F008758200EF2FFFEE33FECD33CDCC52
:1004710033CCC58233C5829BED9AEC99E5829840D5
:100481000CF582EE9BFEED9AFDEC99FC0FD5F0D6B2
:10049100E4CEFBE4CDFAE4CCF9A88222B800C1B9DC
:1004A1000059BA002DEC8BF084CFCECDFCE5F0CB1A
:1004B100F97818EF2FFFEE33FEED33FDEC33FCEB53
:1004C10033FB10D703994004EB99FB0FD8E5E4F90E
:1004D100FA227818EF2FFFEE33FEED33FDEC33FCFB
:1004E100C933C910D7059BE99A4007EC9BFCE99AEF
:1004F100F90FD8E0E4C9FAE4CCFB2275F010EF2F34
:10050100FFEE33FEED33FDCC33CCC833C810D70733
:100511009BEC9AE899400AED9BFDEC9AFCE899F86E
:0E0521000FD5F0DAE4CDFBE4CCFAE4C8F92201
:10052F00EB9FF5F0EA9E42F0E99D42F0E89C45F022
:01053F002299
:10054000E8600FECC313FCED13FDEE13FEEF13FF99
:03055000D8F122BD
:0C055300ECF0A3EDF0A3EEF0A3EFF0221B
:10055F00D083D082F8E4937012740193700DA3A32B
:10056F0093F8740193F5828883E47374029368603F
:06057F00EFA3A3A380DF3F
:10007E00E5082427F582E43400F583E00508229094
:10008E000024300703900027E475F0011205970253
:10009E0003E32000E97F2ED2008018EF540F249046
:1000AE00D43440D4FF30040BEF24BFB41A005003F5
:1000BE002461FFE50960021509050CE50C700205C7
:1000CE000B30070E900024E475F001120597EF0235
:1000DE00058502002B7403D2078003E4C207F508DE
:1000EE009000241205AEE4F509F50BF50CE5096058
:1000FE00077F201200C180F5750AFFC201C200C23F
:10010E0002C203C205C206C20812008DFF700D3076
:10011E0007057F001200D2AF0CAE0B22B4255FC2D2
:10012E00D5C20412008DFF24D0B40A00501A75F007
:10013E000A780930D50508B6FF0106C6A426F620B2
:10014E00D5047002D20380D924CFB41A00EF500424
:10015E00C2E5D2040202D3D20180C6D20080C0D240
:10016E000280BCD2D580BAD20580B47F201200C1E5
:10017E002002077401B5090040F112007EFF120043
:10018E00C10200FBD208D206809512007EFB12003F
:10019E007EFA12007EF94A4B700679A47A037BFF31
:1001AE0020022EE509602A7E008E827583001203DE
:1001BE00FC60060EEE650A70F0C2D5EBC0E0EAC038
:1001CE00E0E9C0E0EE12031AD0E0F9D0E0FAD0E098
:1001DE00FB1203E3FF60AAEBC0E0EAC0E0E9C0E077
:1001EE001200C1D0E02401F9D0E03400FAD0E0FBD7
:1001FE00E50A0460DCD50AD980877BFF7A0379167D
:10020E00D202809C791080027908C206C20880084A
:10021E00D2D5790A8004790AC2D5E50A047002F5AE
:10022E000AE4FAFDFEFF12007EFC7B082001131289
:10023E00007EFD7B1030000A12007EFE12007EFF53
:10024E007B20EC3382D592D55013C3E43000069F49
:10025E00FFE49EFEE42001039DFDE49CFCE4CBF84C
:10026E00C201EC700CCFCECDCCE824F8F870F38040
:10027E0017C3EF33FFEE33FEED33FDEC33FCEB3300
:10028E00FB994002FB0FD8E9EB300105F8D0E0C432
:10029E0048B201C0E00AEC4D4E4F78207B0070C290
:1002AE00EAB50A0040BCC0E012031CD0F0D0E0203A
:1002BE000104C4C0E0C4B201C0F01200AAD0F0D54F
:1002CE00F0EB0200FB12055F019853021258016910
:1002DE004C01654202164F021E44021E49017E4326
:0802EE00022455020846020833
:1002F6004502084703C450016D2D01712E01942B50
:1003060001752301922003AD2A012D480000018CBE
:100316003F3F3F00790AA2D5200314300509B910E2
:10032600020404B9080104A2D520060250010420E3
:1003360002689202B509005034C0E07F20300319EC
:100346007F30A20272067205500F120373C202C2F8
:1003560006C205C2087F30800F300503E9C0E012EF
:1003660000C1300503D0E0F9D0E0B509CC3005175F
:100376007F30B9100C1200C17F583004077F788097
:1003860003B908031200C13002057F2D0200C17FA8
:10039600202008F87F2B2006F322920280CF286EB9
:1003A600756C6C2900D20112007E3001F8C201780A
:1003B6000930D50108F602012D2D50434958120087
:1003C6007E2403B405004001E49003BF931200B2FB
:0D03D600743A1200B2D2037509040202123B
:10058500BB010689828A83F0225002F722BBFE0155
:02059500F3224F
:10059700F8E0FBA3A3E0F925F0F0E58215827002ED
:0705A7001583E0FA38F02291
:0905AE00EBF0A3EAF0A3E9F0224E
:00000001FF
