:08002B003099FDC2998F992262
:10031600493243202753656E642053544127206594
:1003260072726F720D0A00493243202753656E645C
:1003360020534C412B5727206572726F720D0A00AD
:10034600493243202753656E6420737562206164C9
:10035600647265737327206572726F720D0A0049A5
:1003660032432027577269746520446174612720DF
:100376006572726F720D0A004932432057726974B2
:1003860065206572726F722C2074657374207374A5
:100396006F700D0A00493243202753656E64204969
:1003A6003243204869676820427974652041646455
:1003B6007265737327206572726F720D0A00493277
:1003C60043202753656E6420534C412B52272065EA
:1003D60072726F720D0A0049324320274E6F204118
:1003E600636B27206572726F720D0A0049324320D3
:1003F6002741636B27206572726F720D0A004932BE
:10040600432052656164206572726F722C20746598
:1004160073742073746F700D0A0031323334350DE6
:100426000A0061626364650D0A0036373839300D9B
:020436000A00BA
:080070004100370041005A0075
:100C7E00900034EBF0A3EAF0A3E9F0900034E0FB2F
:100C8E00A3E0FAA3E0F91201746018900034E0A317
:100C9E00E475F0011201DCA9F0FA120174FF120CD6
:040CAE00BA80D8220E
:1000190043B30843B40843B31043B41075BE09D2BF
:02002900C622ED
:1000360053B3F753B4F753B3EF53B4EFD294D29309
:10004600A2AF920175C7AA75C75575910143B24013
:1000560075C7AA75C755E4F591A20192AF439B01F6
:0A006600D2AF75C1A0D2C6D2C222EB
:10000300E5BD7011D200D2C4C2C330C308C2C6D288
:06001300C6C2C3C2C622F2
:0E06F50090002EEFF0A3EBF0A3EAF0A3E9F0E3
:10070300D2C5C2C330C3FDE5BD6408600ED2007B11
:10071300FF7A037916120C7E0207A9C2C575BCA025
:10072300C2C330C3FDE5BD6418600DD2007BFF7A00
:1007330003792D120C7E806E90002EE0F5BCC2C3AF
:1007430030C3FDE5BD6428600DD2007BFF7A0379D9
:1007530046120C7E8050E4900033F0900032E0FFAC
:10076300A3E0C39F503990002FE0FBA3E0FAA3E07E
:10077300F9900033E0F58275830012018DF5BCC258
:10078300C330C3FDE5BD6428600DD2007BFF7A034F
:100793007965120C7E800F900033E004F080BCD2A8
:1007A300C4C2C320C4FD30000E120003C2007BFF8D
:0707B3007A03797E120C7E2F
:0107BA00221C
:0E04380090002EEFF0A3EBF0A3EAF0A3E9F0A2
:10044600D2C5C2C330C3FDE5BD6408600ED2007BD1
:10045600FF7A037916120C7E02054275BCA0C2C54E
:10046600C2C330C3FDE5BD6418600ED2007BFF7ABF
:1004760003792D120C7E02054290002EE0F5BCC2D7
:10048600C330C3FDE5BD6428600ED2007BFF7A034E
:10049600799B120C7E020542D2C5C2C330C3FDE56C
:1004A600BD6410600ED2007BFF7A037916120C7EB3
:1004B600020542C2C575BCA1C2C330C3FDE5BD6419
:1004C60040600DD2007BFF7A0379C4120C7E806CEB
:1004D600E4900033F0900032E0FFA3E0C39F503B6E
:1004E600D2C2C2C330C3FDE5BD6450600DD2007BED
:1004F600FF7A0379DD120C7E804290002FE0FBA389
:10050600E0FAA3E0F9900033E0F582758300E5BCDC
:100516001201BA900033E004F080BAC2C2C2C330FE
:10052600C3FDE5BD6458600DD2007BFF7A0379F206
:10053600120C7E8007C2C3D2C420C4FD30000E1246
:0D05460000037BFF7A047904120C7EC200D2
:010553002285
:0300330002062999
:10062900C0E0C083C082C0D075D000C000C007AF91
:10063900BDEF1202F0066000066560066968066D86
:1006490080068F8806A8A006ACA806C6B806E0C032
:1006590006E4C8000006E6D2C40206E6D2C2807DDE
:10066900C28280FE90005AE02438F582E43400F515
:1006790083E5BCF090005AE004F0E0B42204C2C261
:10068900805BD2C2805790005AE02438F582E43466
:1006990000F583E5BCF090005AE4F0D2C2803ED266
:1006A900C2803A90005AE02438F582E43400F58398
:1006B900E0F5BC90005AE004F0D2C2802090005AC4
:1006C900E02438F582E43400F583E0F5BC90005A63
:1006D900E004F0D2C28006D2C28002D2C2C2C3D024
:0C06E90007D000D0D0D082D083D0E03207
:100554007BFF7A047928781D7C007D017E007F086A
:1005640012014E7BFF7A04793078257C007D017E70
:10057400007F0812014EE490002DF0FF7EC27D0141
:10058400FC120867D299D2AF7BFF7A047920120C4F
:100594007E1200197FE87E037D007C001209C07B77
:1005A400017A00791D9000327408F07F021206F57A
:1005B4007F0A7E007D007C001209C07B017A0079ED
:1005C400099000327408F07F021204387B017A002B
:1005D4007909120C7E7FE87E037D007C001209C03D
:1005E4007B017A0079259000327408F07F021206AC
:1005F400F57F0A7E007D007C001209C07B017A0031
:1006040079099000327408F07F021204387B017A71
:10061400007909120C7E7FE87E037D007C001209BC
:04062400C00205A368
:0106280022AF
:03007B00020BF87D
:100BF800C0E0C0F0C083C082C0D075D000C000C0C3
:100C080001C002C003C004C005C006C00730F80D0B
:100C1800C2F8900037E59AF0E0FF120CCA30F902EA
:100C2800C2F9D007D006D005D004D003D002D00135
:0D0C3800D000D0D0D082D083D0F0D0E032F8
:100960009000001202E4538EF75389F0438901D2BC
:100970008CE4FFFEFDFC900000E0F8A3E0F9A3E0AA
:10098000FAA3E0FBC31202C06033758AF3758CFFD3
:10099000308DFDC28D900000E0FCA3E0FDA3E0FEE1
:1009A000A3E0FF74FFEF24FFFFEE34FFFEED34FF02
:1009B000FDEC34FFFC9000001202E480B4C28C22F3
:100B3E009000041202E4538EF7438901D28CE4FF35
:100B4E00FEFDFC900004E0F8A3E0F9A3E0FAA3E0B8
:100B5E00FBC31202C06033758A7E758CFF308DFD2B
:100B6E00C28D900004E0FCA3E0FDA3E0FEA3E0FF35
:100B7E0074FFEF24FFFFEE34FFFEED34FFFDEC3487
:0D0B8E00FFFC9000041202E480B4C28C222F
:1009C00090002E1202E4538EF75389F0438901D22E
:1009D0008CE4FFFEFDFC90002EE0F8A3E0F9A3E01C
:1009E000FAA3E0FBC31202C06033758ACA758CFAA1
:1009F000308DFDC28D90002EE0FCA3E0FDA3E0FE53
:100A0000A3E0FF74FFEF24FFFFEE34FFFEED34FFA1
:100A1000FDEC34FFFC90002E1202E480B4C28C2264
:100B9B0090005B1202E4538EEF438910D28EE4FF78
:100BAB00FEFDFC90005BE0F8A3E0F9A3E0FAA3E004
:100BBB00FBC31202C06033758BEA758DCB308FFD92
:100BCB00C28F90005BE0FCA3E0FDA3E0FEA3E0FF7F
:100BDB0074FFEF24FFFFEE34FFFEED34FFFDEC342A
:0D0BEB00FFFC90005B1202E480B4C28E2279
:100A200090005F1202E453C9BF53C9DF43C910D21B
:100A3000CAE4FFFEFDFC90005FE0F8A3E0F9A3E04C
:100A4000FAA3E0FBC31202C0603375CC3075CDF859
:100A500030CFFDC2CF90005FE0FCA3E0FDA3E0FE3D
:100A6000A3E0FF74FFEF24FFFFEE34FFFEED34FF41
:100A7000FDEC34FFFC90005F1202E480B4C2CA2295
:100A80009000631202E475C40743C408E4FFFEFD4E
:100A9000FC900063E0F8A3E0F9A3E0FAA3E0FBC355
:100AA0001202C0603675C52C75C6CFE5C430E4FBB4
:100AB00053C4EF900063E0FCA3E0FDA3E0FEA3E0DD
:100AC000FF74FFEF24FFFFEE34FFFEED34FFFDEC7B
:0F0AD00034FFFC9000631202E480B153C4F7229C
:100ADF009000671202E475C40743C408E4FFFEFDEB
:100AEF00FC900067E0F8A3E0F9A3E0FAA3E0FBC3F2
:100AFF001202C0603675C5D875C6FFE5C430E4FB79
:100B0F0053C4EF900067E0FCA3E0FDA3E0FEA3E079
:100B1F00FF74FFEF24FFFFEE34FFFEED34FFFDEC1B
:0F0B2F0034FFFC9000671202E480B153C4F72238
:100C450053B1BF53B2BF53B17F53B27F7598504371
:100C55008920438780438E1053C4DFAB07AA06A9BA
:100C650005A8047F407E427D0F7C0012022EEF0412
:090C7500F404F58DD28ED299220F
:1008670090002E1202E453B1BF53B2BF53B17F536E
:10087700B27F75985043878053C4F843C4209000D3
:100887002EE0F8A3E0F9A3E0FAA3E0FB7F407E4265
:100897007D0F7C0012022EC374FF9FFF74FF9EFE24
:1008A700E49DFDE49CFC78081202D18FC690002ECF
:1008B700E0F8A3E0F9A3E0FAA3E0FB7F407E427DE6
:1008C7000F7C0012022EC374FF9FFF74FF9EFEE48D
:0F08D7009DFDE49CFCEFE48FC543C408D2992239
:070CB2003098FDAF99C298D4
:010CB9002218
:080CBA00C2998F993099FD22C7
:1008E60090006B1202E453B1FB53B2FB53B3BF53F8
:1008F600B4BF75F85075C40853C4DF90006BE0F8B8
:10090600A3E0F9A3E0FAA3E0FB7F407E427D0F7CE3
:100916000012022EC374FF9FFF74FF9EFEE49DFD2E
:10092600E49CFC78081202D18FC690006BE0F8A315
:10093600E0F9A3E0FAA3E0FB7F407E427D0F7C0056
:1009460012022EC374FF9FFF74FF9EFEE49DFDE41A
:0A0956009CFCEFE48FC543C40822A7
:070CC20030F8FDAF9AC2F803
:010CC9002208
:080CCA00C2F98F9A30F9FD22F6
:030000000207BB39
:1007BB0075C7AA75C75575FD5A75C7AA75C75575FF
:1007CB00FDA5787FE4F6D8FD9000007FFF7E03E463
:0C07DB00F0A3DFFCDEFA7581800208222A
:1007E700020554E493A3F8E493A34003F68001F2CF
:1007F70008DFF48029E493A3F85407240CC8C33313
:10080700C4540F4420C8834004F456800146F6DFE1
:10081700E4800B0102040810204080900070E47E01
:10082700019360BCA3FF543F30E509541FFEE493D6
:10083700A360010ECF54C025E060A840B8E493A39D
:10084700FAE493A3F8E493A3C8C582C8CAC583CAC8
:10085700F0A3C8C582C8CAC583CADFE9DEE780BE80
:010078000087
:10007E00E709F608DFFA8046E709F208DFFA803E64
:10008E0088828C83E709F0A3DFFA8032E309F60851
:10009E00DFFA8078E309F208DFFA807088828C83B9
:1000AE00E309F0A3DFFA806489828A83E0A3F6086D
:1000BE00DFFA805889828A83E0A3F208DFFA804C47
:1000CE0080D280FA80C680D4806980F2803380101E
:1000DE0080A680EA809A80A880DA80E280CA803387
:1000EE0089828A83ECFAE493A3C8C582C8CCC583FF
:1000FE00CCF0A3C8C582C8CCC583CCDFE9DEE780CF
:10010E000D89828A83E493A3F608DFF9ECFAA9F04D
:10011E00EDFB2289828A83ECFAE0A3C8C582C8CCA3
:10012E00C583CCF0A3C8C582C8CCC583CCDFEADEBC
:10013E00E880DB89828A83E493A3F208DFF980CC1E
:10014E0088F0EF60010E4E60C388F0ED2402B40417
:10015E000050B9F582EB2402B4040050AF232345BE
:06016E0082239000CE7315
:10017400BB010689828A83E0225002E722BBFE0289
:09018400E32289828A83E49322BC
:10018D00BB010CE58229F582E5833AF583E0225027
:10019D0006E92582F8E622BBFE06E92582F8E22271
:0D01AD00E58229F582E5833AF583E493228B
:1001BA00F8BB010DE58229F582E5833AF583E8F07B
:1001CA00225006E92582C8F622BBFE05E92582C827
:0201DA00F2220F
:1001DC00A3F8E0C5F025F0F0E582158270021583D6
:0601EC00E0C838F0E82233
:1001F20075F008758200EF2FFFEE33FECD33CDCCC4
:1002020033CCC58233C5829BED9AEC99E582984046
:100212000CF582EE9BFEED9AFDEC99FC0FD5F0D623
:10022200E4CEFBE4CDFAE4CCF9A88222B800C1B94D
:100232000059BA002DEC8BF084CFCECDFCE5F0CB8B
:10024200F97818EF2FFFEE33FEED33FDEC33FCEBC4
:1002520033FB10D703994004EB99FB0FD8E5E4F97F
:10026200FA227818EF2FFFEE33FEED33FDEC33FC6C
:10027200C933C910D7059BE99A4007EC9BFCE99A60
:10028200F90FD8E0E4C9FAE4CCFB2275F010EF2FA5
:10029200FFEE33FEED33FDCC33CCC833C810D707A5
:1002A2009BEC9AE899400AED9BFDEC9AFCE899F8E0
:0E02B2000FD5F0DAE4CDFBE4CCFAE4C8F92273
:1002C000EB9FF5F0EA9E42F0E99D42F0E89C45F094
:0102D000220B
:1002D100E8600FECC313FCED13FDEE13FEEF13FF0B
:0302E100D8F1222F
:0C02E400ECF0A3EDF0A3EEF0A3EFF0228D
:1002F000D083D082F8E4937012740193700DA3A39D
:1003000093F8740193F5828883E4737402936860B0
:06031000EFA3A3A380DFB0
:00000001FF
