:080000000C943A000C94660018
:14005400000000000000000000000000000000000000000098
:0B00680000000000000000000000008D
:14007400CFE5D4E0CDBFDEBFC051D0400AEA08830024EFE74D
:14008800F0E010E0E038F10711F00192FBCF0083E4E5F0E01A
:14009C00A0E6B0E010E0E337F10721F0C89531960D92F9CF9C
:1400B0000E94AC00FFCF8BB780648BBF8A9885B7826085BF2C
:1400C40085B78E7F85BF08958A938FB78A9381E080937F008B
:1400D8008BB78F7B8BBF89918FBF8991189588E028B22826BF
:1400EC0028BA8AB780648ABF8BB780648BBF0895222426BE79
:140100008EE080B921B822B884E086BF089584EA86BF26B6BC
:1401140027FEFDCF089584E986BF0895A998A89A02E010E0A5
:14012800CDD0A898A99A01E010E0C8D0089584B3836084BB44
:14013C00A99AA89A02E010E0BFD0A998A89801E010E0BAD0ED
:1401500084B38C7F84BB0895F894BB9AC39AABDFDFD084B3CF
:140164008C7F84BB85B3836085BBC6DF789447C080917F009A
:14017800813009F03CC0222420927F00C4DF21E00AE557D09C
:14018C000034A9F470D0009378006DD0009379006AD000932D
:1401A0007A0067D000937B0064D000937C0061D000937D0008
:1401B40069D000937E00AFDF00E8B7D000917800B4D00091D2
:1401C8007900B1D000917A00AED000917B00ABD000917C000C
:1401DC00A8D000917D00A5D000917E00A2D008E010E089D062
:1401F0000CE211E067D08AB780648ABF8BB780648BBFB8CF80
:1402040008950E94C601622F402F7FDF2227042F12D008E636
:1402180022D007E220D00BE21ED003E81CD005E31AD007E993
:14022C0018D000E116D073DF0E94BA010895222321F0202E1F
:14024000222A23B803C0802F8E7F83B984E886BF26B627FE16
:14025400FDCF000001B1087F089503B984E886BF26B627FE86
:14026800FDCF000001B1087F089584E886BF86B78F70806C07
:14027C0086BF26B627FEFDCF03B1089584E886BF86B78F701E
:14029000806886BF26B627FEFDCF03B108950E94C601602F17
:1402A400442733DF21E0062FC6DF003411F4DFDF402F31DF78
:1402B800042F0E94BA010895000008950E94C801A80101C093
:1402CC00F9DF1A01415050402220D1F73320C1F70E94CB0187
:1402E000089502C00150104000300107D9F7089509EC14E07C
:1402F40002C00150104000300107D9F708950E94C801A801DA
:1403080001C0F2DF1A01415050402220D1F73320C1F70E945C
:14031C00CB01089588E98AB987E089B986E880BD08955D9BC7
:14033000FECF0CB908950E94C801A80104C0FA010191AF0175
:14034400F4DFFA0120802220C1F70E94CB0108950E94C401CB
:14035800622F5801442705C0F50101915F01E3DF4395461798
:14036C00C8F30E94BD010895E2E00C94CC01E4E00C94CC0165
:14038000FA92EA92DA92CA92BA92AA927A936A935A934A933D
:140394000895E1E049915991E0FD089569917991E1FD08953A
:1403A800A990B990E2FD0895C990D990E3FD0895E990F99002
:0203BC000895A2
:00000001FF
