:040000000C947300E9
:04002C000C947C03B1
:140054003031323334353637383941424344454600000000F6
:14006800000000000000000000000000000000000000000084
:14007C00000000000000000000000000000000000000000070
:1400900000000000000000000000000000000000000000005C
:1400A400000000000000000000000000000000000000000048
:1400B80000000000000000000000000000000000000074625E
:1400CC007566007762756600656570726F6D203230303631F0
:0500E000323035430041
:1400E600CFE5D4E0CDBFDEBFC051D0400AEA08830024E1EEE2
:1400FA00F0E011E0ED3AF10711F00192FBCF0083E4E6F0E097
:14010E00A0E6B0E010E0E53EF10721F0C89531960D92F9CF20
:140122000E94E903FFCF04E610E00E94F2018FEF84BBAB98FE
:14013600AA9801E010E00E94F20100E223D000E221D00CE079
:14014A001FD006E01DD001E01BD0089501E018D001E010E0DC
:14015E000E94F20108950E94F80444270AC007FF02C0AA9A7C
:1401720001C0AA98AB9A0000AB98000F43954830A0F30E945A
:14018600FB0408950E94F804402F08EFE8DF042F007FE5DF88
:14019A00042F0F700295E1DF04E110E00E94D9010E94FB0456
:1401AE0008950E94F804402F0AEFD5DF042F007FD2DF042F50
:1401C2000F700295CEDF04E110E00E94D9010E94FB040895D7
:1401D6000E94F404622FA02E44278A2D99278F7090705C01DE
:1401EA008030890771F0C5018130E0E09E0759F08230E0E0C9
:1401FE009E0749F08330E0E09E0739F007C040E805C040E9F1
:1402120003C048E801C048E9862F8F70482B042FB3DF0E9465
:14022600E70408950E94F404B801AB0104E3AADF00E3A8DF63
:14023A0066270FC012E1062F0E949C04002331F4222712E166
:14024E00062F0E949E04C0DF00E2ABDF6395643278F3AA2451
:1402620025C012E10A2D0E949C04002331F4222712E10A2D7C
:140276000E949E04ADDF12E00A2D0F5F0E949C04002369F44B
:14028A008FE7FA012080821540F431978081803820F400E20D
:14029E0088DFA39405C0FA010191AF0182DFA394FA01208079
:1402B200222021F08A2D843208F4D3CF01E010E00E94F20174
:1402C6000E94E70408950E94F404A22E602F44278A2D99271F
:1402DA008F7090705C018030890771F0C5018130E0E09E0737
:1402EE0059F08230E0E09E0749F08330E0E09E0739F007C05B
:1403020040E805C040E903C048E801C048E9862F8F70482BC5
:14031600042F38DF0E94E70408950E94F404A22E602F4E8197
:14032A005F8104E32DDF00E32BDF2A2D062FC9DF82E18A9D41
:14033E00202C260E622D26C012E1062F0E949C04002339F4FC
:1403520012E1062F0E949E04202F0027B6DF12E0062F0F5F8B
:140366000E949C04002369F48FE7FA012080821540F431971D
:14037A008081803820F400E216DF639505C0FA010191AF01D1
:14038E0010DF6395FA012080222019F0643208F4D3CF01E079
:1403A20010E00E94F2010E94E7040895000008950E94F6045F
:1403B600B8014427552703C0F7DF4F5F5F4F46175707D0F320
:1403CA000E94E40408950027112702C00F5F1F4F0437E4E0FC
:1403DE001E07D0F308950E94F604B8014427552703C0EFDFB9
:1403F2004F5F5F4F46175707D0F30E94E404089508C0F80135
:1404060020802CB80F5F1F4F5D9BFECF2A9522242216A8F3E5
:14041A0008950E9497040E94F00479012197CF84D888570121
:14042E00B694A794B694A794B694A794B694A794AA2011F4D7
:14044200BB20E1F0C50101961C014424552440E150E060E00E
:1404560070E05A924A923A922A928A019B010E94B404180158
:14046A0029013701882499242618370848085908510105C06E
:14047E0080E190E05C01AE18BF08AC14BD0458F0C882970104
:140492000B851C8566D02090AC01222009F432C031C0A88246
:1404A60097010B851C855BD01C870B872090AC01222009F081
:1404BA0025C0CA18DB08EA0CFB1C13C080E1888397010B8510
:1404CE001C8549D01C870B872090AC01222009F013C0C601F9
:1404E20040976C01C70140967C01C6018031E0E09E0740F793
:1404F6008030890729F0C88297010B851C852FD021960E942E
:14050A00ED04249608950E94F2046901A80168857985AA2431
:14051E005601AB2CBB24AA0C47D00A2D00564AD0083191F48A
:140532000C2D46D03FD00A2D0F5542D007C04AD0FA0100834B
:140546004F5F5F4F6150704060306707B1F703C08AE08093FE
:14055A00AC0143D00E94EA0408950E94F2045901A801688518
:14056E00CC246501CD2CDD24CC0C1ED00C2D005621D00831AA
:1405820069F40A2D1DD006C0FA01008119D04F5F5F4F6A955E
:1405960022242616B8F303C08AE08093AC011FD006E010E072
:1405AA000E94F2018A010E94EA04089584EA86BF26B627FE3C
:1405BE00FDCF089503B984E886BF26B627FEFDCF000001B1D4
:1405D200087F089584EC86BF26B627FEFDCF03B1089584E9B1
:1405E60086BF08950E94F004E22E38016097CA8CDB8C84E523
:1405FA0090E0FE0100E110E0FA93EA939A938A930E94620550
:14060E00442766272DC0E62FFF27E60DF71D8081807F82959A
:140622008F70A82E242E33244F5FCE01EA2DFF27E80FF91F7D
:140636004080E22DFF27EC0DFD1D4082E62FFF27E60DF71DA4
:14064A0080818F70A82E242E33244F5FCE01EA2DFF27E80F6C
:14065E00F91F4080E22DFF27EC0DFD1D408263956E1508F42F
:14067200D0CFE42FFF27EC0DFD1D2224208260960E94ED0418
:14068600089588E98AB98FE289B986E880BD08950E94F80476
:14069A00402F5D9BFECF02E010E00E94D9014CB90E94FB0424
:1406AE0008950E94F604B801AB0105C0FA010081EBDF4F5FE1
:1406C2005F4FFA0120802220B9F70E94E40408950E94F40428
:1406D600A22EA801BA014A2DAA2406C0FB010081D7DF6F5FD0
:1406EA007F4FA394A416C0F30E94E70408950E9434052CB0A9
:1406FE002092E100822D843281F48091C400863661F422244F
:1407120033243092E3002092E2002092600084E78093C400EF
:1407260049C08091E100833241F58091C400843721F584E7C8
:14073A008093C50080E690E09093E5008093E40002E010E02C
:14074E000E94F20101E00E94C50002E010E00E94F2010091C2
:14076200E4001091E5000E94150104E610E00E94F20186E686
:140776008093C4008093C5001DC080E690E0E091E200F09139
:14078A00E300E80FF91F2090E1002082E091E200F091E3007F
:14079E003196E80FF91F222420828091E2009091E3000196FB
:1407B2009093E3008093E2000E944B051895222426BE84E605
:1407C60080B921B822B884E086BF08952697F89483E085BB01
:1407DA00222424BA0E949400EEDF0E944403222425BE2BBEE9
:1407EE0029BE789400ED10E00E94150100E213E00E94F20105
:14080200002411241B820A8214C086EE90E0EA81FB81E80FCA
:14081600F91F2224208286E291E0EA81FB81E80FF91F20825D
:14082A008A819B8101969B838A838A819B818034E0E09E0791
:14083E0030F3002411241B820A820EC086EE90E0EA81FB8168
:14085200E80FF91F2A803B8020828A819B8101969B838A8393
:140866008A819B818034E0E09E0760F386E691E099838883E7
:14087A002AE030E006E211E00E94F50206E211E00E9415014D
:14088E000BEC10E00E94580304E610E00E94F2012AE006E211
:1408A20011E00E94690386E291E07C01CC24DD2480E490E028
:1408B6009D838C8386EE90E05C016627772740E450E0598363
:1408CA0048839B018C010E940E020C801D801982088296018F
:1408DE0087010E94880286E691E0998388832AE030E006E24C
:1408F20011E00E94F5022090AC012092AB0106E611E00E942E
:14090600150106EC10E00E94580304E610E00E94F2012AE06F
:14091A0006E611E00E946903002411241D820C8226960895FF
:14092E003A932A931A930A930895689401C0E8942A93FA92C2
:14094200EA92FF24EE2420E1000FFF1CEE1CE11610F0E11AC9
:1409560003952A95B9F70EF40E2DE990F990299108950E944E
:14096A000F057F920E94280539F177240E942E0519F48C0151
:14097E009D0120C0089FB02CA12C289F902C812C189FA00C04
:14099200911C871C099FA00C911C871C199F900C811C0A9FC3
:1409A600900C811C389F800C299F800C1A9F800C0B9F800CD2
:1409BA000B2D1A2D292D382D7F900C941D05E2E00C94FC04BC
:1409CE00E4E00C94FC04E8E00C94FC04EE270C94FC04FA9208
:1409E200EA92DA92CA92BA92AA927A936A935A934A930895C4
:1409F600E1E049915991E0FD089569917991E1FD0895A99036
:140A0A00B990E2FD0895C990D990E3FD0895E990F990089535
:140A1E008A929A92AA92BA92EA938A939A93AA93BA93898595
:140A32009A85AB85BC850895B991A99199918991E991B990F8
:140A4600A9909990899024960895EE27E02BE12BE22BE32B83
:140A5A000895EE27E82BE92BEA2BEB2B0895FA93EA93BA9390
:140A6E00AA939A938A933A932A931A930A939A928A927A92C5
:140A82006A925A924A923A922A921A920A920FB60A920895CE
:140A960009900FBE099019902990399049905990699079905E
:140AAA0089909990099119912991399189919991A991B99166
:140ABE00E991F9910895AA93BA93EA93FA930A92AF81B885E6
:140AD200ED81FE810030010731F0C8950D9231960150104066
:100AE600F7CF0990F991E991B991A99124960895C2
:00000001FF
