:08002B003099FDC2998F992262
:10007E000A493243202753656E642053544127208A
:10008E006572726F72000A493243202753656E649F
:10009E0020534C412B5727206572726F72000A490C
:1000AE003243202753656E642049324320486967E6
:1000BE0068204279746520416464726573732720E9
:1000CE006572726F72000A493243202753656E645F
:1000DE0020493243204C6F77204279746520416469
:1000EE00647265737327206572726F72000A4932EB
:1000FE0043202753656E6420534C412B52272065B5
:10010E0072726F72000A49324320274E6F2041638C
:10011E006B27206572726F72000A49324320275294
:10012E00656164206461746127206572726F72006C
:10013E000A493243202741636B27206572726F7222
:10014E00000A4932432052656164206572726F72F3
:10015E002C20746573742073746F70000A493243D7
:10016E00202753656E64204869676820627974653C
:10017E00206164647265737327206572726F7200FA
:10018E000A493243202753656E64204C6F772062F4
:10019E007974652061646472657373272065727269
:1001AE006F72000A493243202757726974652044E2
:1001BE0061746127206572726F72000A49324320A2
:1001CE0027576169742052656164792720657272C0
:1001DE006F72000A49324320577269746520657246
:1001EE00726F722C20746573742073746F70004973
:1001FE003243202753656E64205354412720657285
:10020E00726F720D0A00493243202753656E6420C7
:10021E00534C412B5727206572726F720D0A00499D
:10022E003243202753656E642073756220616464C7
:10023E007265737327206572726F720D0A004932F0
:10024E0043202757726974652044617461272065C5
:10025E0072726F720D0A00493243205772697465CB
:10026E00206572726F722C20746573742073746FB4
:10027E00700D0A00493243202753656E64204932BF
:10028E00432048696768204279746520416464722E
:10029E0065737327206572726F720D0A00493243BF
:1002AE00202753656E6420534C412B5227206572D4
:1002BE00726F720D0A0049324320274E6F20416340
:1002CE006B27206572726F720D0A00493243202728
:1002DE0041636B27206572726F720D0A00493243BB
:1002EE002052656164206572726F722C2074657382
:1002FE00742073746F700D0A0031323334350D0A69
:10030E000061626364650D0A0036373839300D0AB4
:01031E0000DE
:080070004100370041005A0075
:10106A00900034EBF0A3EAF0A3E9F0900034E0FB3F
:10107A00A3E0FAA3E0F91204156018900034E0A383
:10108A00E475F00112047DA9F0FA120415FF12109A
:04109A00B680D82222
:1000190043B30843B40843B31043B41075BE09D2BF
:02002900C622ED
:1000360053B3F753B4F753B3EF53B4EFD294D29309
:10004600A2AF920175C7AA75C75575910143B24013
:1000560075C7AA75C755E4F591A20192AF439B01F6
:0A006600D2AF75C1A0D2C6D2C222EB
:10000300E5BD7011D200D2C4C2C330C308C2C6D288
:06001300C6C2C3C2C622F2
:0505B700900000EDF0D2
:1005BC00EF75F020A4FF900002E5F0F0A3EFF0D26D
:1005CC00C5C2C330C3FDE5BD6408600ED2007BFF1D
:1005DC007A00797E12106A0206F075BCA0C2C5C200
:1005EC00C330C3FDE5BD6418600ED2007BFF7A00FA
:1005FC00799412106A0206F0900002E0F5BCC2C3B6
:10060C0030C3FDE5BD6428600ED2007BFF7A007913
:10061C00AC12106A0206F0900002E0A3E0F5BCC236
:10062C00C330C3FDE5BD6428600ED2007BFF7A00A9
:10063C0079D412106A0206F0D2C5C2C330C3FDE5EC
:10064C00BD6410600ED2007BFF7A00797E12106AB6
:10065C000206F0C2C575BCA1C2C330C3FDE5BD64C2
:10066C0040600DD2007BFF7A0079FB12106A807417
:10067C00E4900001F0900001E0C39420503BD2C202
:10068C00C2C330C3FDE5BD6450600DD2007BFF7A60
:10069C0001791312106A804C900000E065BC600D6B
:1006AC00D2007BFF7A01792712106A803790000004
:1006BC00E0F4F0A3E004F080BCC2C2C2C330C3FDBE
:1006CC00E5BD6458600DD2007BFF7A01793E1210B3
:1006DC006A8011C2C3D2C430C40A1200033000F7BE
:1006EC00800280F330000E1200037BFF7A01794FF9
:0506FC0012106AC200AB
:0107010022D5
:05070200900004EDF081
:10070700EF75F020A4FF900006E5F0F0A3EFF0D21C
:10071700C5C2C330C3FDE5BD6408600ED2007BFFD0
:100727007A00797E12106A020812C2C575BCA0C28F
:10073700C330C3FDE5BD6418600ED2007BFF7A00AD
:10074700799412106A020812900006E0F5BCC2C341
:1007570030C3FDE5BD6428600ED2007BFF7A0179C6
:100767006A12106A020812900006E0A3E0F5BCC204
:10077700C330C3FDE5BD6428600ED2007BFF7A015C
:10078700798E12106A020812E4900005F0900005B5
:10079700E0C39420502A900004E0F5BCC2C330C3E4
:1007A700FDE5BD6428600DD2007BFF7A0179B112A7
:1007B700106A8057900004E0F4F0A3E004F080CDC5
:1007C700D2C4C2C330C40A1200033000F7803C8091
:1007D700F3D2C5C2C330C3FDE5BD6408600DD200C6
:1007E7007BFF7A0179C912106A8020C2C575BCA047
:1007F700C2C330C3FDE5BDB418C6D2C4C2C330C43A
:100807000A1200033000F7800280F330000E120056
:0C08170003C2007BFF7A0179E112106A35
:0108230022B2
:0E0AE10090002EEFF0A3EBF0A3EAF0A3E9F0F3
:100AEF00D2C5C2C330C3FDE5BD6408600ED2007B22
:100AFF00FF7A0179FD12106A020B95C2C575BCA071
:100B0F00C2C330C3FDE5BD6418600DD2007BFF7A10
:100B1F0002791412106A806E90002EE0F5BCC2C3E9
:100B2F0030C3FDE5BD6428600DD2007BFF7A0279EA
:100B3F002D12106A8050E4900033F0900032E0FFE5
:100B4F00A3E0C39F503990002FE0FBA3E0FAA3E08E
:100B5F00F9900033E0F58275830012042EF5BCC2C4
:100B6F00C330C3FDE5BD6428600DD2007BFF7A0260
:100B7F00794C12106A800F900033E004F080BCD2E1
:100B8F00C4C2C320C4FD30000E120003C2007BFF9D
:070B9F007A02796512106A69
:010BA600222C
:0E08240090002EEFF0A3EBF0A3EAF0A3E9F0B2
:10083200D2C5C2C330C3FDE5BD6408600ED2007BE1
:10084200FF7A0179FD12106A02092E75BCA0C2C599
:10085200C2C330C3FDE5BD6418600ED2007BFF7ACF
:1008620002791412106A02092E90002EE0F5BCC221
:10087200C330C3FDE5BD6428600ED2007BFF7A025F
:10088200798212106A02092ED2C5C2C330C3FDE5B5
:10089200BD6410600ED2007BFF7A0179FD12106AEE
:1008A20002092EC2C575BCA1C2C330C3FDE5BD6439
:1008B20040600DD2007BFF7A0279AB12106A806C25
:1008C200E4900033F0900032E0FFA3E0C39F503B7E
:1008D200D2C2C2C330C3FDE5BD6450600DD2007BFD
:1008E200FF7A0279C412106A804290002FE0FBA3C3
:1008F200E0FAA3E0F9900033E0F582758300E5BCED
:1009020012045B900033E004F080BAC2C2C2C3306A
:10091200C3FDE5BD6458600DD2007BFF7A0279D930
:1009220012106A8007C2C3D2C420C4FD30000E1266
:0D09320000037BFF7A0279EB12106AC2000D
:01093F002295
:03003300020A15A9
:100A1500C0E0C083C082C0D075D000C000C007AFA1
:100A2500BDEF1205910A4C000A51600A55680A5932
:100A3500800A7B880A94A00A98A80AB2B80ACCC092
:100A45000AD0C800000AD2D2C4020AD2D2C2807D1E
:100A5500C28280FE90005AE02438F582E43400F525
:100A650083E5BCF090005AE004F0E0B42204C2C271
:100A7500805BD2C2805790005AE02438F582E43476
:100A850000F583E5BCF090005AE4F0D2C2803ED276
:100A9500C2803A90005AE02438F582E43400F583A8
:100AA500E0F5BC90005AE004F0D2C2802090005AD4
:100AB500E02438F582E43400F583E0F5BC90005A73
:100AC500E004F0D2C28006D2C28002D2C2C2C3D034
:0C0AD50007D000D0D0D082D083D0E03217
:100940007BFF7A03790F781D7C007D017E007F0894
:100950001203EF7BFF7A03791778257C007D017EF7
:10096000007F081203EFE490002DF0FF7EC27D01AE
:10097000FC120CD2D2F9D2AF7BFF7A0379071210A6
:100980006A1200197FE87E037D007C00120DAC7BAB
:10099000017A00791D9000327408F07F02120AE19A
:1009A0007F0A7E007D007C00120DAC7B017A00790D
:1009B000099000327408F07F021208247B017A004B
:1009C000790912106A7FE87E037D007C00120DAC6D
:1009D0007B017A0079259000327408F07F02120AB8
:1009E000E17F0A7E007D007C00120DAC7B017A0065
:1009F00079099000327408F07F021208247B017A92
:100A000000790912106A7FE87E037D007C00120DD8
:040A1000AC02098F9C
:010A140022BF
:03007B00020FE48D
:100FE400C0E0C0F0C083C082C0D075D000C000C0D3
:100FF40001C002C003C004C005C006C00730F80D1C
:10100400C2F8900037E59AF0E0FF1210B630F9020A
:10101400C2F9D007D006D005D004D003D002D00145
:0D102400D000D0D0D082D083D0F0D0E03208
:100D4C0090005B120585538EF75389F0438901D2CD
:100D5C008CE4FFFEFDFC90005BE0F8A3E0F9A3E05F
:100D6C00FAA3E0FBC31205616033758AF3758CFF3F
:100D7C00308DFDC28D90005BE0FCA3E0FDA3E0FE96
:100D8C00A3E0FF74FFEF24FFFFEE34FFFEED34FF12
:100D9C00FDEC34FFFC90005B12058580B4C28C2204
:100F2A0090005F120585538EF7438901D28CE4FF46
:100F3A00FEFDFC90005FE0F8A3E0F9A3E0FAA3E06D
:100F4A00FBC31205616033758A7E758CFF308DFD97
:100F5A00C28D90005FE0FCA3E0FDA3E0FEA3E0FFEA
:100F6A0074FFEF24FFFFEE34FFFEED34FFFDEC3497
:0D0F7A00FFFC90005F12058580B4C28C2240
:100DAC0090002E120585538EF75389F0438901D29A
:100DBC008CE4FFFEFDFC90002EE0F8A3E0F9A3E02C
:100DCC00FAA3E0FBC31205616033758ACA758CFA0D
:100DDC00308DFDC28D90002EE0FCA3E0FDA3E0FE63
:100DEC00A3E0FF74FFEF24FFFFEE34FFFEED34FFB2
:100DFC00FDEC34FFFC90002E12058580B4C28C22D1
:100F8700900063120585538EEF438910D28EE4FFDC
:100F9700FEFDFC900063E0F8A3E0F9A3E0FAA3E00C
:100FA700FBC31205616033758BEA758DCB308FFDFE
:100FB700C28F900063E0FCA3E0FDA3E0FEA3E0FF87
:100FC70074FFEF24FFFFEE34FFFEED34FFFDEC343A
:0D0FD700FFFC90006312058580B4C28E22DD
:100E0C0090006712058553C9BF53C9DF43C910D27F
:100E1C00CAE4FFFEFDFC900067E0F8A3E0F9A3E054
:100E2C00FAA3E0FBC3120561603375CC3075CDF8C5
:100E3C0030CFFDC2CF900067E0FCA3E0FDA3E0FE45
:100E4C00A3E0FF74FFEF24FFFFEE34FFFEED34FF51
:100E5C00FDEC34FFFC90006712058580B4C2CA22F9
:100E6C0090006B12058575C40743C408E4FFFEFDB2
:100E7C00FC90006BE0F8A3E0F9A3E0FAA3E0FBC35D
:100E8C00120561603675C52C75C6CFE5C430E4FB20
:100E9C0053C4EF90006BE0FCA3E0FDA3E0FEA3E0E5
:100EAC00FF74FFEF24FFFFEE34FFFEED34FFFDEC8B
:0F0EBC0034FFFC90006B12058580B153C4F72200
:100ECB0090006F12058575C40743C408E4FFFEFD4F
:100EDB00FC90006FE0F8A3E0F9A3E0FAA3E0FBC3FA
:100EEB00120561603675C5D875C6FFE5C430E4FBE5
:100EFB0053C4EF90006FE0FCA3E0FDA3E0FEA3E082
:100F0B00FF74FFEF24FFFFEE34FFFEED34FFFDEC2B
:0F0F1B0034FFFC90006F12058580B153C4F7229C
:1010310053B1BF53B2BF53B17F53B27F7598504381
:101041008920438780438E1053C4DFAB07AA06A9CA
:1010510005A8047F407E427D0F7C001204CFEF047F
:09106100F404F58DD28ED299221F
:100C530090007312058553B1BF53B2BF53B17F5395
:100C6300B27F75985043878053C4F843C4209000E3
:100C730073E0F8A3E0F9A3E0FAA3E0FB7F407E4230
:100C83007D0F7C001204CFC374FF9FFF74FF9EFE91
:100C9300E49DFDE49CFC78081205728FC6900073F6
:100CA300E0F8A3E0F9A3E0FAA3E0FB7F407E427DF6
:100CB3000F7C001204CFC374FF9FFF74FF9EFEE4FA
:0F0CC3009DFDE49CFCEFE48FC543C408D2992249
:07109E003098FDAF99C298E4
:0110A5002228
:0810A600C2998F993099FD22D7
:100CD20090002E12058553B1FB53B2FB53B3BF53A1
:100CE200B4BF75F85075C40853C4DF90002EE0F805
:100CF200A3E0F9A3E0FAA3E0FB7F407E427D0F7CF4
:100D0200001204CFC374FF9FFF74FF9EFEE49DFD9B
:100D1200E49CFC78081205728FC690002EE0F8A3BE
:100D2200E0F9A3E0FAA3E0FB7F407E427D0F7C0066
:100D32001204CFC374FF9FFF74FF9EFEE49DFDE487
:0A0D42009CFCEFE48FC543C40822B7
:0710AE0030F8FDAF9AC2F813
:0110B5002218
:0810B600C2F98F9A30F9FD2206
:03000000020BA749
:100BA70075C7AA75C75575FD5A75C7AA75C755750F
:100BB700FDA5787FE4F6D8FD9000007FFF7E03E473
:0C0BC700F0A3DFFCDEFA758180020C0E4A
:100BD300020940E493A3F8E493A34003F68001F2EF
:100BE30008DFF48029E493A3F85407240CC8C33323
:100BF300C4540F4420C8834004F456800146F6DFF2
:100C0300E4800B0102040810204080900070E47E11
:100C1300019360BCA3FF543F30E509541FFEE493E6
:100C2300A360010ECF54C025E060A840B8E493A3AD
:100C3300FAE493A3F8E493A3C8C582C8CAC583CAD8
:100C4300F0A3C8C582C8CAC583CADFE9DEE780BE90
:010078000087
:10031F00E709F608DFFA8046E709F208DFFA803EC0
:10032F0088828C83E709F0A3DFFA8032E309F608AD
:10033F00DFFA8078E309F208DFFA807088828C8315
:10034F00E309F0A3DFFA806489828A83E0A3F608C9
:10035F00DFFA805889828A83E0A3F208DFFA804CA3
:10036F0080D280FA80C680D4806980F2803380107A
:10037F0080A680EA809A80A880DA80E280CA8033E3
:10038F0089828A83ECFAE493A3C8C582C8CCC5835B
:10039F00CCF0A3C8C582C8CCC583CCDFE9DEE7802B
:1003AF000D89828A83E493A3F608DFF9ECFAA9F0AA
:1003BF00EDFB2289828A83ECFAE0A3C8C582C8CC00
:1003CF00C583CCF0A3C8C582C8CCC583CCDFEADE19
:1003DF00E880DB89828A83E493A3F208DFF980CC7B
:1003EF0088F0EF60010E4E60C388F0ED2402B40474
:1003FF000050B9F582EB2402B4040050AF2323451B
:06040F00822390036F73CD
:10041500BB010689828A83E0225002E722BBFE02E5
:09042500E32289828A83E4932218
:10042E00BB010CE58229F582E5833AF583E0225083
:10043E0006E92582F8E622BBFE06E92582F8E222CD
:0D044E00E58229F582E5833AF583E49322E7
:10045B00F8BB010DE58229F582E5833AF583E8F0D7
:10046B00225006E92582C8F622BBFE05E92582C883
:02047B00F2226B
:10047D00A3F8E0C5F025F0F0E58215827002158332
:06048D00E0C838F0E8228F
:1004930075F008758200EF2FFFEE33FECD33CDCC20
:1004A30033CCC58233C5829BED9AEC99E5829840A3
:1004B3000CF582EE9BFEED9AFDEC99FC0FD5F0D680
:1004C300E4CEFBE4CDFAE4CCF9A88222B800C1B9AA
:1004D3000059BA002DEC8BF084CFCECDFCE5F0CBE8
:1004E300F97818EF2FFFEE33FEED33FDEC33FCEB21
:1004F30033FB10D703994004EB99FB0FD8E5E4F9DC
:10050300FA227818EF2FFFEE33FEED33FDEC33FCC8
:10051300C933C910D7059BE99A4007EC9BFCE99ABC
:10052300F90FD8E0E4C9FAE4CCFB2275F010EF2F01
:10053300FFEE33FEED33FDCC33CCC833C810D70701
:100543009BEC9AE899400AED9BFDEC9AFCE899F83C
:0E0553000FD5F0DAE4CDFBE4CCFAE4C8F922CF
:10056100EB9FF5F0EA9E42F0E99D42F0E89C45F0F0
:010571002267
:10057200E8600FECC313FCED13FDEE13FEEF13FF67
:03058200D8F1228B
:0C058500ECF0A3EDF0A3EEF0A3EFF022E9
:10059100D083D082F8E4937012740193700DA3A3F9
:1005A10093F8740193F5828883E47374029368600D
:0605B100EFA3A3A380DF0D
:00000001FF
