:080DA2003099FDC2998F9922DE
:100B700031323334350D0A00493243202753656E34
:100B80006420534C412B5727206572726F720D0AF7
:100B9000007265673032203D202562750D0A000025
:100BA0000000000000000000000000000000000045
:100BB0000000000000000000000000000000000035
:070BC000000000000000002E
:040DD80041006D0069
:100C0000900031EBF0A3EAF0A3E9F0900031E0FBB3
:100C1000A3E0FAA3E0F912045E6018900031E0A3AB
:100C2000E475F001120477A9F0FA12045EFF120DC8
:040C3000B280D82294
:010DDD0022F3
:100D8400000000000000000000000000000000005F
:010D9400223C
:100C6800000000000000000000000000000000007C
:100C7800000000000000000000000000000000006C
:100C8800000000000000000000000000000000005C
:010C98002239
:0D0D950043B30843B40843B31043B4102225
:070DCA0043B31043B41022F3
:070DD10043B31053B4EF22FD
:100D3C00120DCAD294D293120C68C294120C68C2CF
:020D4C009322F0
:100D4E00120DCAC293C294120C68D293D294120C92
:020D5E00682209
:100D6000120DCAC293C294120D84D293120D84C282
:020D70009322CC
:100D7200120DCAC293D294120D84D293120D84C260
:020D82009322BA
:100CF500E4FF120DD1D294120DDDD293120DDD3029
:100D0500940D0FEFD394FA40F6120D4E7F0122C2D7
:030D1500937F00C9
:010D180022B8
:100C3400120DCAC293E4FEEEC394085026EF54800A
:100C4400FDC413131354016004D2948002C294129D
:100C54000D84D293120D84C293120D84EF25E0FF0C
:030C64000E80D42B
:010C6700226A
:100C9900E4FEFD120DD1EEC394085015C293120D56
:100CA90084D293ED25E0FD3094010D120DDD0E8007
:0E0CB900E5EF7005120D728003120D60AF059D
:010CC700220A
:100D1900AC05AB07120D3C7FA0120C34120CF5AFD9
:100D290003120C34120CF5AF04120C34120CF51228
:030D39000D4E223A
:020CC800AC0777
:100CCA00E4FB120D3C7FA0120C34120CF5AF041297
:100CDA000C34120CF5120D3C7FA1120C34120CF5D7
:0A0CEA00E4FF120C99AB07120D4E47
:010CF40022DD
:100610007BFF7A0B799F78097C007D017E007F0A41
:100620001204387BFF7A0B79A978137C007D017E58
:10063000007F0A1204387BFF7A0B79B3781D7C00A7
:100640007D017E007F141204387F007EC27D017C14
:10065000001207DFD299D2AF7BFF7A0B7970120CB0
:1006600000120D957FE87E037D007C00120938534F
:10067000B3FB53B4FB90006DE0B4010BE4F07BFFDF
:100680007A0B7978120C00E4900013F07D067F82DB
:10069000120D197F147E007D007C001209387F82C4
:1006A000120CC8900013EFF07B017A00791D9000C6
:1006B0003474FFF0A3740BF0A37491F0900013E076
:1006C000900037F01200687B017A00791D120C004F
:1006D0007F647E007D007C00120938E4900013F0F6
:1006E0007D097F82120D197F147E007D007C00122F
:1006F00009387F82120CC8900013EFF07B017A005A
:10070000791D90003474FFF0A3740BF0A37491F082
:10071000900013E0900037F01200687B017A0079B6
:100720001D120C007F647E007D007C0012093802DF
:0207300006754C
:0107320022A4
:1008D80090000012057F538EF75389F0438901D2A7
:1008E8008CE4FFFEFDFC900000E0F8A3E0F9A3E033
:1008F800FAA3E0FBC312055B6033758AF3758CFFBE
:10090800308DFDC28D900000E0FCA3E0FDA3E0FE69
:10091800A3E0FF74FFEF24FFFFEE34FFFEED34FF8A
:10092800FDEC34FFFC90000012057F80B4C28C22DD
:100AB60090000412057F538EF7438901D28CE4FF20
:100AC600FEFDFC900004E0F8A3E0F9A3E0FAA3E041
:100AD600FBC312055B6033758A7E758CFF308DFD16
:100AE600C28D900004E0FCA3E0FDA3E0FEA3E0FFBE
:100AF60074FFEF24FFFFEE34FFFEED34FFFDEC3410
:0D0B0600FFFC90000412057F80B4C28C2219
:1009380090003112057F538EF75389F0438901D215
:100948008CE4FFFEFDFC900031E0F8A3E0F9A3E0A1
:10095800FAA3E0FBC312055B6033758ACA758CFA8B
:10096800308DFDC28D900031E0FCA3E0FDA3E0FED8
:10097800A3E0FF74FFEF24FFFFEE34FFFEED34FF2A
:10098800FDEC34FFFC90003112057F80B4C28C224C
:100B130090005912057F538EEF438910D28EE4FF64
:100B2300FEFDFC900059E0F8A3E0F9A3E0FAA3E08E
:100B3300FBC312055B6033758BEA758DCB308FFD7C
:100B4300C28F900059E0FCA3E0FDA3E0FEA3E0FF09
:100B530074FFEF24FFFFEE34FFFEED34FFFDEC34B2
:0D0B6300FFFC90005912057F80B4C28E2265
:1009980090005D12057F53C9BF53C9DF43C910D208
:1009A800CAE4FFFEFDFC90005DE0F8A3E0F9A3E0D7
:1009B800FAA3E0FBC312055B603375CC3075CDF844
:1009C80030CFFDC2CF90005DE0FCA3E0FDA3E0FEC8
:1009D800A3E0FF74FFEF24FFFFEE34FFFEED34FFCA
:1009E800FDEC34FFFC90005D12057F80B4C2CA2282
:1009F80090006112057F75C40743C408E4FFFEFD3B
:100A0800FC900061E0F8A3E0F9A3E0FAA3E0FBC3DF
:100A180012055B603675C52C75C6CFE5C430E4FB9E
:100A280053C4EF900061E0FCA3E0FDA3E0FEA3E067
:100A3800FF74FFEF24FFFFEE34FFFEED34FFFDEC03
:0F0A480034FFFC90006112057F80B153C4F72288
:100A570090006512057F75C40743C408E4FFFEFDD7
:100A6700FC900065E0F8A3E0F9A3E0FAA3E0FBC37C
:100A770012055B603675C5D875C6FFE5C430E4FB63
:100A870053C4EF900065E0FCA3E0FDA3E0FEA3E004
:100A9700FF74FFEF24FFFFEE34FFFEED34FFFDECA4
:0F0AA70034FFFC90006512057F80B153C4F72225
:100BC70053B1BF53B2BF53B17F53B27F75985043F0
:100BD7008920438780438E1053C4DFAB07AA06A939
:100BE70005A8047F407E427D0F7C001204C9EF04F4
:090BF700F404F58DD28ED299228E
:1007DF0090003112057F53B1BF53B2BF53B17F5356
:1007EF00B27F75985043878053C4F843C42090005C
:1007FF0031E0F8A3E0F9A3E0FAA3E0FB7F407E42EB
:10080F007D0F7C001204C9C374FF9FFF74FF9EFE0F
:10081F00E49DFDE49CFC780812056C8FC6900031B6
:10082F00E0F8A3E0F9A3E0FAA3E0FB7F407E427D6E
:10083F000F7C001204C9C374FF9FFF74FF9EFEE478
:0F084F009DFDE49CFCEFE48FC543C408D29922C1
:070DAA003098FDAF99C298DB
:010DB100221F
:080DB200C2998F993099FD22CE
:10085E0090006912057F53B1FB53B2FB53B3BF53E4
:10086E00B4BF75F85075C40853C4DF900069E0F842
:10087E00A3E0F9A3E0FAA3E0FB7F407E427D0F7C6C
:10088E00001204C9C374FF9FFF74FF9EFEE49DFD1A
:10089E00E49CFC780812056C8FC6900069E0F8A302
:1008AE00E0F9A3E0FAA3E0FB7F407E427D0F7C00DF
:1008BE001204C9C374FF9FFF74FF9EFEE49DFDE406
:0A08CE009CFCEFE48FC543C4082230
:070DBA0030F8FDAF9AC2F80A
:010DC100220F
:080DC200C2F98F9A30F9FD22FD
:03000000020733C1
:1007330075C7AA75C75575FD5A75C7AA75C7557587
:10074300FDA5787FE4F6D8FD9000007FFF7E03E4EB
:0C075300F0A3DFFCDEFA75818002079A3B
:10075F00020610E493A3F8E493A34003F68001F29A
:10076F0008DFF48029E493A3F85407240CC8C3339B
:10077F00C4540F4420C8834004F456800146F6DF6A
:10078F00E4800B0102040810204080900DD8E47E15
:10079F00019360BCA3FF543F30E509541FFEE4935F
:1007AF00A360010ECF54C025E060A840B8E493A326
:1007BF00FAE493A3F8E493A3C8C582C8CAC583CA51
:1007CF00F0A3C8C582C8CAC583CADFE9DEE780BE09
:010DDC000016
:10036800E709F608DFFA8046E709F208DFFA803E77
:1003780088828C83E709F0A3DFFA8032E309F60864
:10038800DFFA8078E309F208DFFA807088828C83CC
:10039800E309F0A3DFFA806489828A83E0A3F60880
:1003A800DFFA805889828A83E0A3F208DFFA804C5A
:1003B80080D280FA80C680D4806980F28033801031
:1003C80080A680EA809A80A880DA80E280CA80339A
:1003D80089828A83ECFAE493A3C8C582C8CCC58312
:1003E800CCF0A3C8C582C8CCC583CCDFE9DEE780E2
:1003F8000D89828A83E493A3F608DFF9ECFAA9F061
:10040800EDFB2289828A83ECFAE0A3C8C582C8CCB6
:10041800C583CCF0A3C8C582C8CCC583CCDFEADECF
:10042800E880DB89828A83E493A3F208DFF980CC31
:1004380088F0EF60010E4E60C388F0ED2402B4042A
:100448000050B9F582EB2402B4040050AF232345D1
:0604580082239003B8733B
:10045E00BB010689828A83E0225002E722BBFE029C
:09046E00E32289828A83E49322CF
:10047700A3F8E0C5F025F0F0E58215827002158338
:06048700E0C838F0E82295
:10048D0075F008758200EF2FFFEE33FECD33CDCC26
:10049D0033CCC58233C5829BED9AEC99E5829840A9
:1004AD000CF582EE9BFEED9AFDEC99FC0FD5F0D686
:1004BD00E4CEFBE4CDFAE4CCF9A88222B800C1B9B0
:1004CD000059BA002DEC8BF084CFCECDFCE5F0CBEE
:1004DD00F97818EF2FFFEE33FEED33FDEC33FCEB27
:1004ED0033FB10D703994004EB99FB0FD8E5E4F9E2
:1004FD00FA227818EF2FFFEE33FEED33FDEC33FCCF
:10050D00C933C910D7059BE99A4007EC9BFCE99AC2
:10051D00F90FD8E0E4C9FAE4CCFB2275F010EF2F07
:10052D00FFEE33FEED33FDCC33CCC833C810D70707
:10053D009BEC9AE899400AED9BFDEC9AFCE899F842
:0E054D000FD5F0DAE4CDFBE4CCFAE4C8F922D5
:10055B00EB9FF5F0EA9E42F0E99D42F0E89C45F0F6
:01056B00226D
:10056C00E8600FECC313FCED13FDEE13FEEF13FF6D
:03057C00D8F12291
:0C057F00ECF0A3EDF0A3EEF0A3EFF022EF
:10000300E5082434F582E43400F583E00508229002
:100013000031300703900034E475F0011205CA0281
:10002300045E2000E97F2ED2008018EF540F249045
:10003300D43440D4FF30040BEF24BFB41A00500370
:100043002461FFE50960021509050CE50C70020542
:100053000B30070E900031E475F0011205CAEF0270
:1000630005B8020DA27403D2078003E4C207F508A2
:100073009000311205E1E4F509F50BF50CE5096093
:10008300077F2012004680F5750AFFC201C200C235
:1000930002C203C205C206C208120012FF700D306D
:1000A30007057F00120057AF0CAE0B22B4255FC2C9
:1000B300D5C204120012FF24D0B40A00501A75F0FE
:1000C3000A780930D50508B6FF0106C6A426F6202E
:1000D300D5047002D20380D924CFB41A00EF5004A0
:1000E300C2E5D204020258D20180C6D20080C0D237
:1000F3000280BCD2D580BAD20580B47F20120046DC
:100103002002077401B5090040F1120003FF120039
:1001130046020080D208D2068095120003FB12002B
:1001230003FA120003F94A4B700679297A037BFF1D
:1001330020022EE509602A7E008E82758300120557
:100143008B60060EEE650A70F0C2D5EBC0E0EAC024
:10015300E0E9C0E0EE12029FD0E0F9D0E0FAD0E08F
:10016300FB12045EFF60AAEBC0E0EAC0E0E9C0E076
:10017300120046D0E02401F9D0E03400FAD0E0FBCD
:10018300E50A0460DCD50AD980877BFF7A02799B74
:10019300D202809C791080027908C206C2088008C6
:1001A300D2D5790A8004790AC2D5E50A047002F52A
:1001B3000AE4FAFDFEFF120003FC7B082001131280
:1001C3000003FD7B1030000A120003FE120003FF40
:1001D3007B20EC3382D592D55013C3E43000069FC5
:1001E300FFE49EFEE42001039DFDE49CFCE4CBF8C8
:1001F300C201EC700CCFCECDCCE824F8F870F380BC
:1002030017C3EF33FFEE33FEED33FDEC33FCEB337B
:10021300FB994002FB0FD8E9EB300105F8D0E0C4AD
:1002230048B201C0E00AEC4D4E4F78207B0070C20B
:10023300EAB50A0040BCC0E01202A1D0F0D0E02031
:100243000104C4C0E0C4B201C0F012002FD0F0D545
:10025300F0EB0200801205EA011D5301975800EEEE
:100263004C00EA42019B4F01A34401A3490103430C
:0802730001A955018D46018D22
:10027B0045018D4703495000F22D00F62E01192B35
:10028B0000FA2301172003322A00B24800000111A3
:10029B003F3F3F00790AA2D5200314300509B9105E
:1002AB00020404B9080104A2D5200602500104205F
:1002BB0002689202B509005034C0E07F2030031968
:1002CB007F30A20272067205500F1202F8C202C2F0
:1002DB0006C205C2087F30800F300503E9C0E0126B
:1002EB000046300503D0E0F9D0E0B509CC30051756
:1002FB007F30B9100C1200467F583004077F78808E
:10030B0003B908031200463002057F2D0200467F19
:10031B00202008F87F2B2006F322920280CF286E34
:10032B00756C6C2900D2011200033001F8C2017800
:10033B000930D50108F60200B22D5043495812007E
:10034B00032403B405004001E490034493120037E7
:0D035B00743A120037D203750904020197AD
:10058B00BB010CE58229F582E5833AF583E0225025
:10059B0006E92582F8E622BBFE06E92582F8E2226F
:0D05AB00E58229F582E5833AF583E4932289
:1005B800BB010689828A83F0225002F722BBFE0122
:0205C800F3221C
:1005CA00F8E0FBA3A3E0F925F0F0E58215827002BA
:0705DA001583E0FA38F0225E
:0905E100EBF0A3EAF0A3E9F0221B
:1005EA00D083D082F8E4937012740193700DA3A3A0
:1005FA0093F8740193F5828883E4737402936860B4
:06060A00EFA3A3A380DFB3
:00000001FF
