:08160E003099FDC2998F992269
:100E1B00493243202753656E642053544127206584
:100E2B0072726F720D0A00493243202753656E644C
:100E3B0020534C412B5727206572726F720D0A009D
:100E4B00493243202753656E6420737562206164B9
:100E5B00647265737327206572726F720D0A004995
:100E6B0032432027577269746520446174612720CF
:100E7B006572726F720D0A004932432057726974A2
:100E8B0065206572726F722C207465737420737495
:100E9B006F700D0A00493243202753656E64204959
:100EAB003243204869676820427974652041646445
:100EBB007265737327206572726F720D0A00493267
:100ECB0043202753656E6420534C412B52272065DA
:100EDB0072726F720D0A0049324320274E6F204108
:100EEB00636B27206572726F720D0A0049324320C3
:100EFB002741636B27206572726F720D0A004932AE
:100F0B00432052656164206572726F722C20746588
:100F1B0073742073746F700D0A0031323334350DD6
:100F2B000A0061626364650D0A0036373839300D8B
:100F3B000A0000000000000000000000000000009C
:060F4B00000000000000A0
:1015CA0041000900410068005E000A0000000000B6
:1015DA000000000000000000000000000000000001
:1015EA0000000000000000000041006A004100699C
:0115FA0000F0
:1015960090009BEBF0A3EAF0A3E9F090009BE0FB40
:1015A600A3E0FAA3E0F9120AB5601890009BE0A345
:1015B600E475F001120B1DA9F0FA120AB5FF121616
:0415C6002E80D82279
:1015FC0043B30843B40843B31043B41075BE09D2C7
:02160C00C622F4
:10006300E5BD7011D200D2C4C2C330C308C2C6D228
:06007300C6C2C3C2C62292
:0E106D00900095EFF0A3EBF0A3EAF0A3E9F0FA
:10107B00D2C5C2C330C3FDE5BD6408600ED2007B90
:10108B00FF7A0E791B121596021121C2C575BCA0F1
:10109B00C2C330C3FDE5BD6418600DD2007BFF7A7F
:1010AB000E7932121596806E900095E0F5BCC2C396
:1010BB0030C3FDE5BD6428600DD2007BFF7A0E794D
:1010CB004B1215968050E490009AF0900099E0FF37
:1010DB00A3E0C39F5039900096E0FBA3E0FAA3E096
:1010EB00F990009AE0F582758300120ACEF5BCC226
:1010FB00C330C3FDE5BD6428600DD2007BFF7A0EC3
:10110B00796A121596800F90009AE004F080BCD299
:10111B00C4C2C320C4FD30000E120063C2007BFFAB
:07112B007A0E79831215967C
:01113200229A
:0E0F5100900095EFF0A3EBF0A3EAF0A3E9F017
:100F5F00D2C5C2C330C3FDE5BD6408600ED2007BAD
:100F6F00FF7A0E791B12159602105B75BCA0C2C5D5
:100F7F00C2C330C3FDE5BD6418600ED2007BFF7A9B
:100F8F000E793212159602105B900095E0F5BCC2F7
:100F9F00C330C3FDE5BD6428600ED2007BFF7A0E1F
:100FAF0079A012159602105BD2C5C2C330C3FDE5FE
:100FBF00BD6410600ED2007BFF7A0E791B1215965E
:100FCF0002105BC2C575BCA1C2C330C3FDE5BD64D1
:100FDF0040600DD2007BFF7A0E79C9121596806C96
:100FEF00E490009AF0900099E0FFA3E0C39F503B7C
:100FFF00D2C2C2C330C3FDE5BD6450600DD2007BC9
:10100F00FF7A0E79E21215968042900096E0FBA3CC
:10101F00E0FAA3E0F990009AE0F582758300E5BC51
:10102F00120AFB90009AE004F080BAC2C2C2C33029
:10103F00C3FDE5BD6458600DD2007BFF7A0E79F7D2
:10104F001215968007C2C3D2C420C4FD30000E1201
:0D105F0000637BFF7A0F7909121596C2001D
:01106C002261
:10007E007F007EC27D017C0012125ED2F9D2AF7B70
:10008E00FF7A0F79251215961215FCA2AF9201C2B6
:10009E00AF75C7AA75C75543AA40A20192AF7F019B
:1000AE007E007D007C00121338B2807F017E007DC1
:1000BE00007C00121338B280A2AF9201C2AF75C796
:1000CE00AA75C75543AA40A20192AF7F017E007D5B
:1000DE00007C00121338B2807F017E007D007C0010
:1000EE00121338B280A2AF9201C2AF75C7AA75C7FC
:1000FE005543AA40A20192AF7F017E007D007C0095
:10010E00121338B2807F017E007D007C00121338FE
:10011E00B280A2AF9201C2AF75C7AA75C75543AAE6
:10012E0040A20192AF7F017E007D007C0012133849
:10013E00B2807F017E007D007C00121338B280A257
:10014E00AF9201C2AF75C7AA75C75543AA40A201A7
:10015E0092AF7F017E007D007C00121338B2807F4B
:10016E00017E007D007C00121338B280A2AF920196
:10017E00C2AF75C7AA75C75543AA40A20192AF7FF9
:10018E00017E007D007C00121338B2807F017E005C
:10019E007D007C00121338B280A2AF9201C2AF75FF
:1001AE00C7AA75C75543AA40A20192AF7F017E0030
:1001BE007D007C00121338B2807F017E007D007CB2
:1001CE0000121338B280A2AF9201C2AF75C7AA75E2
:1001DE00C75543AA40A20192AF7F017E007D007CED
:1001EE0000121338B2807F017E007D007C00121356
:1001FE0038B280A2AF9201C2AF75C7AA75C7554378
:10020E00AA40A20192AF7F017E007D007C001213F6
:10021E0038B2807F017E007D007C00121338B280E0
:10022E00A2AF9201C2AF75C7AA75C75543AA40A225
:10023E000192AF7F017E007D007C00121338B280E8
:10024E007F017E007D007C00121338B280D2807B4D
:10025E00FF7A0F792D9000997408F07F0212106DBD
:10026E00A2AF9201C2AF75C7AA75C75543AA40A2E5
:10027E000192AF7F017E007D007C00121338B280A8
:10028E007F017E007D007C00121338B280A2AF92F7
:10029E0001C2AF75C7AA75C75543AA40A20192AF56
:1002AE007F017E007D007C00121338B2807F017EBC
:1002BE00007D007C00121338B280A2AF9201C2AF53
:1002CE0075C7AA75C75543AA40A20192AF7F017E9A
:1002DE00007D007C00121338B2807F017E007D000D
:1002EE007C00121338B280A2AF9201C2AF75C7AABA
:1002FE0075C75543AA40A20192AF7F017E007D00D3
:10030E007C00121338B2807F017E007D007C0012CB
:10031E001338B280A2AF9201C2AF75C7AA75C75586
:10032E0043AA40A20192AF7F017E007D007C0012A5
:10033E001338B2807F017E007D007C00121338B22C
:10034E0080A2AF9201C2AF75C7AA75C75543AA4026
:10035E00A20192AF7F017E007D007C00121338B2A5
:10036E00807F017E007D007C00121338B280A2AF28
:10037E009201C2AF75C7AA75C75543AA40A2019292
:10038E00AF7F017E007D007C00121338B2807F01AA
:10039E007E007D007C00121338B280A2AF9201C2A3
:1003AE00AF75C7AA75C75543AA40A20192AF7F0188
:1003BE007E007D007C00121338B2807F017E007DAE
:1003CE00007C00121338B280A2AF9201C2AF75C783
:1003DE00AA75C75543AA40A20192AF7F017E007D48
:1003EE00007C00121338B2807F017E007D007C00FD
:1003FE00121338B280A2AF9201C2AF75C7AA75C7E9
:10040E005543AA40A20192AF7F017E007D007C0081
:10041E00121338B2807F017E007D007C00121338EB
:10042E00B2807B017A0079819000997408F07F0286
:10043E00120F517B017A007981121596A2AF9201AB
:10044E00C2AF75C7AA75C75543AA40A20192AF7F26
:10045E00017E007D007C00121338B2807F017E0089
:10046E007D007C00121338B280A2AF9201C2AF752C
:10047E00C7AA75C75543AA40A20192AF7F017E005D
:10048E007D007C00121338B2807F017E007D007CDF
:10049E0000121338B280A2AF9201C2AF75C7AA750F
:1004AE00C75543AA40A20192AF7F017E007D007C1A
:1004BE0000121338B2807F017E007D007C00121383
:1004CE0038B280A2AF9201C2AF75C7AA75C75543A5
:1004DE00AA40A20192AF7F017E007D007C00121324
:1004EE0038B2807F017E007D007C00121338B2800E
:1004FE00A2AF9201C2AF75C7AA75C75543AA40A253
:10050E000192AF7F017E007D007C00121338B28015
:10051E007F017E007D007C00121338B280A2AF9264
:10052E0001C2AF75C7AA75C75543AA40A20192AFC3
:10053E007F017E007D007C00121338B2807F017E29
:10054E00007D007C00121338B280A2AF9201C2AFC0
:10055E0075C7AA75C75543AA40A20192AF7F017E07
:10056E00007D007C00121338B2807F017E007D007A
:10057E007C00121338B280A2AF9201C2AF75C7AA27
:10058E0075C75543AA40A20192AF7F017E007D0040
:10059E007C00121338B2807F017E007D007C001239
:1005AE001338B280A2AF9201C2AF75C7AA75C755F4
:1005BE0043AA40A20192AF7F017E007D007C001213
:1005CE001338B2807F017E007D007C00121338B29A
:1005DE0080A2AF9201C2AF75C7AA75C75543AA4094
:1005EE00A20192AF7F017E007D007C00121338B213
:1005FE00807F017E007D007C00121338B2807BFF6D
:10060E007A0F79359000997408F07F0212106DA25E
:10061E00AF9201C2AF75C7AA75C75543AA40A201D2
:10062E0092AF7F017E007D007C00121338B2807F76
:10063E00017E007D007C00121338B280A2AF9201C1
:10064E00C2AF75C7AA75C75543AA40A20192AF7F24
:10065E00017E007D007C00121338B2807F017E0087
:10066E007D007C00121338B280A2AF9201C2AF752A
:10067E00C7AA75C75543AA40A20192AF7F017E005B
:10068E007D007C00121338B2807F017E007D007CDD
:10069E0000121338B280A2AF9201C2AF75C7AA750D
:1006AE00C75543AA40A20192AF7F017E007D007C18
:1006BE0000121338B2807F017E007D007C00121381
:1006CE0038B280A2AF9201C2AF75C7AA75C75543A3
:1006DE00AA40A20192AF7F017E007D007C00121322
:1006EE0038B2807F017E007D007C00121338B2800C
:1006FE00A2AF9201C2AF75C7AA75C75543AA40A251
:10070E000192AF7F017E007D007C00121338B28013
:10071E007F017E007D007C00121338B280A2AF9262
:10072E0001C2AF75C7AA75C75543AA40A20192AFC1
:10073E007F017E007D007C00121338B2807F017E27
:10074E00007D007C00121338B280A2AF9201C2AFBE
:10075E0075C7AA75C75543AA40A20192AF7F017E05
:10076E00007D007C00121338B2807F017E007D0078
:10077E007C00121338B280A2AF9201C2AF75C7AA25
:10078E0075C75543AA40A20192AF7F017E007D003E
:10079E007C00121338B2807F017E007D007C001237
:1007AE001338B280A2AF9201C2AF75C7AA75C755F2
:1007BE0043AA40A20192AF7F017E007D007C001211
:1007CE001338B2807F017E007D007C00121338B298
:1007DE00807B017A0079819000997408F07F021273
:1007EE000F517B017A007981121596A2AF9201C248
:1007FE00AF75C7AA75C75543AA40A20192AF7F0134
:10080E007E007D007C00121338B2807F017E007D59
:10081E00007C00121338B280A2AF9201C2AF75C72E
:10082E00AA75C75543AA40A20192AF7F017E007DF3
:10083E00007C00121338B2807F017E007D007C00A8
:10084E00121338B280A2AF9201C2AF75C7AA75C794
:10085E005543AA40A20192AF7F017E007D007C002D
:10086E00121338B2807F017E007D007C0012133897
:10087E00B280A2AF9201C2AF75C7AA75C75543AA7F
:10088E0040A20192AF7F017E007D007C00121338E2
:10089E00B2807F017E007D007C00121338B280A2F0
:1008AE00AF9201C2AF75C7AA75C75543AA40A20140
:1008BE0092AF7F017E007D007C00121338B2807FE4
:1008CE00017E007D007C00121338B280A2AF92012F
:1008DE00C2AF75C7AA75C75543AA40A20192AF7F92
:1008EE00017E007D007C00121338B2807F017E00F5
:1008FE007D007C00121338B280A2AF9201C2AF7598
:10090E00C7AA75C75543AA40A20192AF7F017E00C8
:10091E007D007C00121338B2807F017E007D007C4A
:10092E0000121338B280A2AF9201C2AF75C7AA757A
:10093E00C75543AA40A20192AF7F017E007D007C85
:10094E0000121338B2807F017E007D007C001213EE
:10095E0038B280A2AF9201C2AF75C7AA75C7554310
:10096E00AA40A20192AF7F017E007D007C0012138F
:10097E0038B2807F017E007D007C00121338B28079
:10098E00A2AF9201C2AF75C7AA75C75543AA40A2BE
:10099E000192AF7F017E007D007C00121338B28081
:1009AE007F017E007D007C00121338B28002025B54
:0109BE002216
:100C31007BFF7A0F793D786B7C007D017E007F140C
:100C4100120A8F90006B7401F0FB7A00796B9000AF
:100C510099F07F0912106DA2AF9201C2AF75C7AAB8
:100C610075C75543AA40A20192AF7F017E007D0066
:100C71007C00121338B2807F017E007D007C00125F
:100C81001338B280A2AF9201C2AF75C7AA75C7551A
:100C910043AA40A20192AF7F017E007D007C001239
:100CA1001338B2807F017E007D007C00121338B2C0
:100CB10080A2AF9201C2AF75C7AA75C75543AA40BA
:100CC100A20192AF7F017E007D007C00121338B239
:100CD100807F017E007D007C00121338B280A2AFBC
:100CE1009201C2AF75C7AA75C75543AA40A2019226
:100CF100AF7F017E007D007C00121338B2807F013E
:100D01007E007D007C00121338B280A2AF9201C236
:100D1100AF75C7AA75C75543AA40A20192AF7F011B
:100D21007E007D007C00121338B2807F017E007D41
:100D3100007C00121338B280A2AF9201C2AF75C716
:100D4100AA75C75543AA40A20192AF7F017E007DDB
:100D5100007C00121338B2807F017E007D007C0090
:100D6100121338B280A2AF9201C2AF75C7AA75C77C
:100D71005543AA40A20192AF7F017E007D007C0015
:100D8100121338B2807F017E007D007C001213387F
:100D9100B280A2AF9201C2AF75C7AA75C75543AA67
:100DA10040A20192AF7F017E007D007C00121338CA
:100DB100B2807F017E007D007C00121338B280A2D8
:100DC100AF9201C2AF75C7AA75C75543AA40A20128
:100DD10092AF7F017E007D007C00121338B2807FCC
:100DE100017E007D007C00121338B280A2AF920117
:100DF100C2AF75C7AA75C75543AA40A20192AF7F7A
:100E0100017E007D007C00121338B2807F017E00DC
:090E11007D007C00121338B28050
:010E1A0022B5
:03007B000215105B
:10151000C0E0C0F0C083C082C0D075D000C000C0A1
:1015200001C002C003C004C005C006C00730F80DEA
:10153000C2F8900009E59AF0E0FF12162E30F90289
:10154000C2F9D007D006D005D004D003D002D00114
:0D155000D000D0D0D082D083D0F0D0E032D7
:10000300900000120C25538EF75389F0438901D2D7
:100013008CE4FFFEFDFC900000E0F8A3E0F9A3E010
:10002300FAA3E0FBC3120C016033758AF3758CFFEE
:10003300308DFDC28D900000E0FCA3E0FDA3E0FE47
:10004300A3E0FF74FFEF24FFFFEE34FFFEED34FF68
:10005300FDEC34FFFC900000120C2580B4C28C220E
:10145600900004120C25538EF7438901D28CE4FFC9
:10146600FEFDFC900004E0F8A3E0F9A3E0FAA3E097
:10147600FBC3120C016033758A7E758CFF308DFDBF
:10148600C28D900004E0FCA3E0FDA3E0FEA3E0FF14
:1014960074FFEF24FFFFEE34FFFEED34FFFDEC3466
:0D14A600FFFC900004120C2580B4C28C22C3
:1012D80090009E120C25538EF75389F0438901D252
:1012E8008CE4FFFEFDFC90009EE0F8A3E0F9A3E08B
:1012F800FAA3E0FBC3120C016033758ACA758CFA35
:10130800308DFDC28D90009EE0FCA3E0FDA3E0FEC1
:10131800A3E0FF74FFEF24FFFFEE34FFFEED34FF80
:10132800FDEC34FFFC90009E120C2580B4C28C2288
:1014B3009000A2120C25538EEF438910D28EE4FFC5
:1014C300FEFDFC9000A2E0F8A3E0F9A3E0FAA3E09C
:1014D300FBC3120C016033758BEA758DCB308FFD26
:1014E300C28F9000A2E0FCA3E0FDA3E0FEA3E0FF17
:1014F30074FFEF24FFFFEE34FFFEED34FFFDEC3409
:0D150300FFFC9000A2120C2580B4C28E22C5
:10133800900095120C2553C9BF53C9DF43C910D279
:10134800CAE4FFFEFDFC900095E0F8A3E0F9A3E0F5
:10135800FAA3E0FBC3120C01603375CC3075CDF8ED
:1013680030CFFDC2CF900095E0FCA3E0FDA3E0FEE6
:10137800A3E0FF74FFEF24FFFFEE34FFFEED34FF20
:10138800FDEC34FFFC900095120C2580B4C2CA22F3
:101398009000A6120C2575C40743C408E4FFFEFD9F
:1013A800FC9000A6E0F8A3E0F9A3E0FAA3E0FBC3F1
:1013B800120C01603675C52C75C6CFE5C430E4FB48
:1013C80053C4EF9000A6E0FCA3E0FDA3E0FEA3E079
:1013D800FF74FFEF24FFFFEE34FFFEED34FFFDEC5A
:0F13E80034FFFC9000A6120C2580B153C4F722ED
:1013F7009000AA120C2575C40743C408E4FFFEFD3C
:10140700FC9000AAE0F8A3E0F9A3E0FAA3E0FBC38D
:10141700120C01603675C5D875C6FFE5C430E4FB0C
:1014270053C4EF9000AAE0FCA3E0FDA3E0FEA3E015
:10143700FF74FFEF24FFFFEE34FFFEED34FFFDECFA
:0F14470034FFFC9000AA120C2580B153C4F72289
:10155D0053B1BF53B2BF53B17F53B27F7598504350
:10156D008920438780438E1053C4DFAB07AA06A999
:10157D0005A8047F407E427D0F7C00120B6FEF04A7
:09158D00F404F58DD28ED29922EE
:1011DF009000AE120C2553B1BF53B2BF53B17F5322
:1011EF00B27F75985043878053C4F843C420900052
:1011FF00AEE0F8A3E0F9A3E0FAA3E0FB7F407E4264
:10120F007D0F7C00120B6FC374FF9FFF74FF9EFE58
:10121F00E49DFDE49CFC7808120C128FC69000AE82
:10122F00E0F8A3E0F9A3E0FAA3E0FB7F407E427D64
:10123F000F7C00120B6FC374FF9FFF74FF9EFEE4C1
:0F124F009DFDE49CFCEFE48FC543C408D29922B7
:071616003098FDAF99C29866
:01161D0022AA
:08161E00C2998F993099FD2259
:10125E00900095120C2553B1FB53B2FB53B3BF5301
:10126E00B4BF75F85075C40853C4DF900095E0F80C
:10127E00A3E0F9A3E0FAA3E0FB7F407E427D0F7C62
:10128E0000120B6FC374FF9FFF74FF9EFEE49DFD63
:10129E00E49CFC7808120C128FC6900095E0F8A31F
:1012AE00E0F9A3E0FAA3E0FB7F407E427D0F7C00D5
:1012BE00120B6FC374FF9FFF74FF9EFEE49DFDE44F
:0A12CE009CFCEFE48FC543C4082226
:0716260030F8FDAF9AC2F895
:01162D00229A
:08162E00C2F98F9A30F9FD2288
:03000000021133B7
:1011330075C7AA75C75575FD5A75C7AA75C755757D
:10114300FDA5787FE4F6D8FD9000007FFF7E03E4E1
:0C115300F0A3DFFCDEFA75818002119A27
:10115F0002007EE493A3F8E493A34003F68001F228
:10116F0008DFF48029E493A3F85407240CC8C33391
:10117F00C4540F4420C8834004F456800146F6DF60
:10118F00E4800B01020408102040809015CAE47E11
:10119F00019360BCA3FF543F30E509541FFEE49355
:1011AF00A360010ECF54C025E060A840B8E493A31C
:1011BF00FAE493A3F8E493A3C8C582C8CAC583CA47
:1011CF00F0A3C8C582C8CAC583CADFE9DEE780BEFF
:0115FB0000EF
:1009BF00E709F608DFFA8046E709F208DFFA803E1A
:1009CF0088828C83E709F0A3DFFA8032E309F60807
:1009DF00DFFA8078E309F208DFFA807088828C836F
:1009EF00E309F0A3DFFA806489828A83E0A3F60823
:1009FF00DFFA805889828A83E0A3F208DFFA804CFD
:100A0F0080D280FA80C680D4806980F280338010D3
:100A1F0080A680EA809A80A880DA80E280CA80333C
:100A2F0089828A83ECFAE493A3C8C582C8CCC583B4
:100A3F00CCF0A3C8C582C8CCC583CCDFE9DEE78084
:100A4F000D89828A83E493A3F608DFF9ECFAA9F003
:100A5F00EDFB2289828A83ECFAE0A3C8C582C8CC59
:100A6F00C583CCF0A3C8C582C8CCC583CCDFEADE72
:100A7F00E880DB89828A83E493A3F208DFF980CCD4
:100A8F0088F0EF60010E4E60C388F0ED2402B404CD
:100A9F000050B9F582EB2402B4040050AF23234574
:060AAF008223900A0F7380
:100AB500BB010689828A83E0225002E722BBFE023F
:090AC500E32289828A83E4932272
:100ACE00BB010CE58229F582E5833AF583E02250DD
:100ADE0006E92582F8E622BBFE06E92582F8E22227
:0D0AEE00E58229F582E5833AF583E4932241
:100AFB00F8BB010DE58229F582E5833AF583E8F031
:100B0B00225006E92582C8F622BBFE05E92582C8DC
:020B1B00F222C4
:100B1D00A3F8E0C5F025F0F0E5821582700215838B
:060B2D00E0C838F0E822E8
:100B330075F008758200EF2FFFEE33FECD33CDCC79
:100B430033CCC58233C5829BED9AEC99E5829840FC
:100B53000CF582EE9BFEED9AFDEC99FC0FD5F0D6D9
:100B6300E4CEFBE4CDFAE4CCF9A88222B800C1B903
:100B73000059BA002DEC8BF084CFCECDFCE5F0CB41
:100B8300F97818EF2FFFEE33FEED33FDEC33FCEB7A
:100B930033FB10D703994004EB99FB0FD8E5E4F935
:100BA300FA227818EF2FFFEE33FEED33FDEC33FC22
:100BB300C933C910D7059BE99A4007EC9BFCE99A16
:100BC300F90FD8E0E4C9FAE4CCFB2275F010EF2F5B
:100BD300FFEE33FEED33FDCC33CCC833C810D7075B
:100BE3009BEC9AE899400AED9BFDEC9AFCE899F896
:0E0BF3000FD5F0DAE4CDFBE4CCFAE4C8F92229
:100C0100EB9FF5F0EA9E42F0E99D42F0E89C45F049
:010C110022C0
:100C1200E8600FECC313FCED13FDEE13FEEF13FFC0
:030C2200D8F122E4
:0C0C2500ECF0A3EDF0A3EEF0A3EFF02242
:00000001FF
