:080DCF003099FDC2998F9922B1
:1007DF0073746172742E2E2E2E2E2E2E2E2E2E2EE2
:1007EF002E2E2E2E2E2E2E2E2E2E2E2E2E2E2E2E1A
:1007FF002E2E2E2E2E2E2E2E2E2E2E2E2E2E0D0A4F
:10080F0000493243202753656E6420534C412B57C8
:10081F0027206572726F720D0A0072656730322081
:10082F003D202562750D0A00000000000000000049
:10083F0000000000000000000000000000000000A9
:10084F000000000000000000000000000000000099
:040E050041006D003B
:100C2900900031EBF0A3EAF0A3E9F0900031E0FB8A
:100C3900A3E0FAA3E0F912045E6018900031E0A382
:100C4900E475F001120477A9F0FA12045EFF120D9F
:040C5900DF80D8223E
:010E0A0022C5
:100DB1000000000000000000000000000000000032
:010DC100220F
:100C91000000000000000000000000000000000053
:100CA1000000000000000000000000000000000043
:100CB1000000000000000000000000000000000033
:010CC1002210
:0D0DC20043B10843B20843B10243B202221C
:070DF70043B10243B20222E6
:070DFE0043B10253B2FD22D4
:100D6900120DF7D281D283120C91C281120C91C259
:020D79008322D3
:100D7B00120DF7C283C281120C91D283D281120C55
:020D8B009122B3
:100D8D00120DF7C283C281120DB1D283120DB1C201
:020D9D008322AF
:100D9F00120DF7C283D281120DB1D283120DB1C2DF
:020DAF0083229D
:100D4600E4FF120DFED281120E0AD283120E0A3071
:100D5600810C0FEFD3940240F6C2837F0122C28337
:020D66007F000C
:010D68002268
:100C5D00120DF7C283E4FEEEC394085026EF5480C4
:100C6D00FDC413131354016004D2818002C281129A
:100C7D000DB1D283120DB1C283120DB1EF25E0FF7C
:030C8D000E80D402
:010C90002241
:100CC200E4FEFD120DFEEEC394085015C283120D10
:100CD200B1D283ED25E0FD3081010D120E0A0E80A6
:0E0CE200E5EF7005120D9F8003120D8DAF051A
:010CF00022E1
:100D1E00AC05AB07120D697F26120C5D120D4690C5
:100D2E00006DEFF0AF03120C5D120D46AF04120C06
:080D3E005D120D46120D7B222F
:020CF100AC074E
:100CF300E4FB120D697F26120C5D120D46AF041240
:100D03000C5D120D46120D697F27120C5D120D4604
:0A0D1300E4FF120CC2AB07120D7BC7
:010D1D0022B3
:100610007BFF7A08793778097C007D017E007F0AAC
:100620001204387BFF7A08794178137C007D017EC3
:10063000007F0A1204387BFF7A08794B781D7C0012
:100640007D017E007F141204387F007EC27D017C14
:100650000012085FD299D2AF7BFF7A0779DF120CC4
:1006600029120DC27FE87E037D007C001209B85379
:10067000B3FB53B4FB90006DE0B4010BE4F07BFFDF
:100680007A087910120C29E4900013F07D067F8A15
:10069000120D1E7F327E007D007C001209B87F8A19
:1006A000120CF1900013EFF07B017A00791D90009D
:1006B0003474FFF0A37408F0A37429F0900013E0E1
:1006C000900037F01200687B017A00791D120C2926
:1006D0007F647E007D007C001209B8E4900013F076
:1006E0007D097F8A120D1E7F327E007D007C001204
:1006F00009B87F8A120CF1900013EFF07B017A00A9
:10070000791D90003474FFF0A37408F0A37429F0ED
:10071000900013E0900037F01200687B017A0079B6
:100720001D120C297F647E007D007C001209B80236
:0207300006754C
:0107320022A4
:1009580090000012057F538EF75389F0438901D226
:100968008CE4FFFEFDFC900000E0F8A3E0F9A3E0B2
:10097800FAA3E0FBC312055B6033758AF3758CFF3D
:10098800308DFDC28D900000E0FCA3E0FDA3E0FEE9
:10099800A3E0FF74FFEF24FFFFEE34FFFEED34FF0A
:1009A800FDEC34FFFC90000012057F80B4C28C225D
:100B360090000412057F538EF7438901D28CE4FF9F
:100B4600FEFDFC900004E0F8A3E0F9A3E0FAA3E0C0
:100B5600FBC312055B6033758A7E758CFF308DFD95
:100B6600C28D900004E0FCA3E0FDA3E0FEA3E0FF3D
:100B760074FFEF24FFFFEE34FFFEED34FFFDEC348F
:0D0B8600FFFC90000412057F80B4C28C2299
:1009B80090003112057F538EF75389F0438901D295
:1009C8008CE4FFFEFDFC900031E0F8A3E0F9A3E021
:1009D800FAA3E0FBC312055B6033758ACA758CFA0B
:1009E800308DFDC28D900031E0FCA3E0FDA3E0FE58
:1009F800A3E0FF74FFEF24FFFFEE34FFFEED34FFAA
:100A0800FDEC34FFFC90003112057F80B4C28C22CB
:100B930090005912057F538EEF438910D28EE4FFE4
:100BA300FEFDFC900059E0F8A3E0F9A3E0FAA3E00E
:100BB300FBC312055B6033758BEA758DCB308FFDFC
:100BC300C28F900059E0FCA3E0FDA3E0FEA3E0FF89
:100BD30074FFEF24FFFFEE34FFFEED34FFFDEC3432
:0D0BE300FFFC90005912057F80B4C28E22E5
:100A180090005D12057F53C9BF53C9DF43C910D287
:100A2800CAE4FFFEFDFC90005DE0F8A3E0F9A3E056
:100A3800FAA3E0FBC312055B603375CC3075CDF8C3
:100A480030CFFDC2CF90005DE0FCA3E0FDA3E0FE47
:100A5800A3E0FF74FFEF24FFFFEE34FFFEED34FF49
:100A6800FDEC34FFFC90005D12057F80B4C2CA2201
:100A780090006112057F75C40743C408E4FFFEFDBA
:100A8800FC900061E0F8A3E0F9A3E0FAA3E0FBC35F
:100A980012055B603675C52C75C6CFE5C430E4FB1E
:100AA80053C4EF900061E0FCA3E0FDA3E0FEA3E0E7
:100AB800FF74FFEF24FFFFEE34FFFEED34FFFDEC83
:0F0AC80034FFFC90006112057F80B153C4F72208
:100AD70090006512057F75C40743C408E4FFFEFD57
:100AE700FC900065E0F8A3E0F9A3E0FAA3E0FBC3FC
:100AF70012055B603675C5D875C6FFE5C430E4FBE3
:100B070053C4EF900065E0FCA3E0FDA3E0FEA3E083
:100B1700FF74FFEF24FFFFEE34FFFEED34FFFDEC23
:0F0B270034FFFC90006512057F80B153C4F722A4
:100BF00053B1BF53B2BF53B17F53B27F75985043C7
:100C00008920438780438E1053C4DFAB07AA06A90F
:100C100005A8047F407E427D0F7C001204C9EF04CA
:090C2000F404F58DD28ED2992264
:10085F0090003112057F53B1BF53B2BF53B17F53D5
:10086F00B27F75985043878053C4F843C4209000DB
:10087F0031E0F8A3E0F9A3E0FAA3E0FB7F407E426A
:10088F007D0F7C001204C9C374FF9FFF74FF9EFE8F
:10089F00E49DFDE49CFC780812056C8FC690003136
:1008AF00E0F8A3E0F9A3E0FAA3E0FB7F407E427DEE
:1008BF000F7C001204C9C374FF9FFF74FF9EFEE4F8
:0F08CF009DFDE49CFCEFE48FC543C408D2992241
:070DD7003098FDAF99C298AE
:010DDE0022F2
:080DDF00C2998F993099FD22A1
:1008DE0090006912057F53B1FB53B2FB53B3BF5364
:1008EE00B4BF75F85075C40853C4DF900069E0F8C2
:1008FE00A3E0F9A3E0FAA3E0FB7F407E427D0F7CEC
:10090E00001204C9C374FF9FFF74FF9EFEE49DFD99
:10091E00E49CFC780812056C8FC6900069E0F8A381
:10092E00E0F9A3E0FAA3E0FB7F407E427D0F7C005E
:10093E001204C9C374FF9FFF74FF9EFEE49DFDE485
:0A094E009CFCEFE48FC543C40822AF
:070DE70030F8FDAF9AC2F8DD
:010DEE0022E2
:080DEF00C2F98F9A30F9FD22D0
:03000000020733C1
:1007330075C7AA75C75575FD5A75C7AA75C7557587
:10074300FDA5787FE4F6D8FD9000007FFF7E03E4EB
:0C075300F0A3DFFCDEFA75818002079A3B
:10075F00020610E493A3F8E493A34003F68001F29A
:10076F0008DFF48029E493A3F85407240CC8C3339B
:10077F00C4540F4420C8834004F456800146F6DF6A
:10078F00E4800B0102040810204080900E05E47EE7
:10079F00019360BCA3FF543F30E509541FFEE4935F
:1007AF00A360010ECF54C025E060A840B8E493A326
:1007BF00FAE493A3F8E493A3C8C582C8CAC583CA51
:1007CF00F0A3C8C582C8CAC583CADFE9DEE780BE09
:010E090000E8
:10036800E709F608DFFA8046E709F208DFFA803E77
:1003780088828C83E709F0A3DFFA8032E309F60864
:10038800DFFA8078E309F208DFFA807088828C83CC
:10039800E309F0A3DFFA806489828A83E0A3F60880
:1003A800DFFA805889828A83E0A3F208DFFA804C5A
:1003B80080D280FA80C680D4806980F28033801031
:1003C80080A680EA809A80A880DA80E280CA80339A
:1003D80089828A83ECFAE493A3C8C582C8CCC58312
:1003E800CCF0A3C8C582C8CCC583CCDFE9DEE780E2
:1003F8000D89828A83E493A3F608DFF9ECFAA9F061
:10040800EDFB2289828A83ECFAE0A3C8C582C8CCB6
:10041800C583CCF0A3C8C582C8CCC583CCDFEADECF
:10042800E880DB89828A83E493A3F208DFF980CC31
:1004380088F0EF60010E4E60C388F0ED2402B4042A
:100448000050B9F582EB2402B4040050AF232345D1
:0604580082239003B8733B
:10045E00BB010689828A83E0225002E722BBFE029C
:09046E00E32289828A83E49322CF
:10047700A3F8E0C5F025F0F0E58215827002158338
:06048700E0C838F0E82295
:10048D0075F008758200EF2FFFEE33FECD33CDCC26
:10049D0033CCC58233C5829BED9AEC99E5829840A9
:1004AD000CF582EE9BFEED9AFDEC99FC0FD5F0D686
:1004BD00E4CEFBE4CDFAE4CCF9A88222B800C1B9B0
:1004CD000059BA002DEC8BF084CFCECDFCE5F0CBEE
:1004DD00F97818EF2FFFEE33FEED33FDEC33FCEB27
:1004ED0033FB10D703994004EB99FB0FD8E5E4F9E2
:1004FD00FA227818EF2FFFEE33FEED33FDEC33FCCF
:10050D00C933C910D7059BE99A4007EC9BFCE99AC2
:10051D00F90FD8E0E4C9FAE4CCFB2275F010EF2F07
:10052D00FFEE33FEED33FDCC33CCC833C810D70707
:10053D009BEC9AE899400AED9BFDEC9AFCE899F842
:0E054D000FD5F0DAE4CDFBE4CCFAE4C8F922D5
:10055B00EB9FF5F0EA9E42F0E99D42F0E89C45F0F6
:01056B00226D
:10056C00E8600FECC313FCED13FDEE13FEEF13FF6D
:03057C00D8F12291
:0C057F00ECF0A3EDF0A3EEF0A3EFF022EF
:10000300E5082434F582E43400F583E00508229002
:100013000031300703900034E475F0011205CA0281
:10002300045E2000E97F2ED2008018EF540F249045
:10003300D43440D4FF30040BEF24BFB41A00500370
:100043002461FFE50960021509050CE50C70020542
:100053000B30070E900031E475F0011205CAEF0270
:1000630005B8020DCF7403D2078003E4C207F50875
:100073009000311205E1E4F509F50BF50CE5096093
:10008300077F2012004680F5750AFFC201C200C235
:1000930002C203C205C206C208120012FF700D306D
:1000A30007057F00120057AF0CAE0B22B4255FC2C9
:1000B300D5C204120012FF24D0B40A00501A75F0FE
:1000C3000A780930D50508B6FF0106C6A426F6202E
:1000D300D5047002D20380D924CFB41A00EF5004A0
:1000E300C2E5D204020258D20180C6D20080C0D237
:1000F3000280BCD2D580BAD20580B47F20120046DC
:100103002002077401B5090040F1120003FF120039
:1001130046020080D208D2068095120003FB12002B
:1001230003FA120003F94A4B700679297A037BFF1D
:1001330020022EE509602A7E008E82758300120557
:100143008B60060EEE650A70F0C2D5EBC0E0EAC024
:10015300E0E9C0E0EE12029FD0E0F9D0E0FAD0E08F
:10016300FB12045EFF60AAEBC0E0EAC0E0E9C0E076
:10017300120046D0E02401F9D0E03400FAD0E0FBCD
:10018300E50A0460DCD50AD980877BFF7A02799B74
:10019300D202809C791080027908C206C2088008C6
:1001A300D2D5790A8004790AC2D5E50A047002F52A
:1001B3000AE4FAFDFEFF120003FC7B082001131280
:1001C3000003FD7B1030000A120003FE120003FF40
:1001D3007B20EC3382D592D55013C3E43000069FC5
:1001E300FFE49EFEE42001039DFDE49CFCE4CBF8C8
:1001F300C201EC700CCFCECDCCE824F8F870F380BC
:1002030017C3EF33FFEE33FEED33FDEC33FCEB337B
:10021300FB994002FB0FD8E9EB300105F8D0E0C4AD
:1002230048B201C0E00AEC4D4E4F78207B0070C20B
:10023300EAB50A0040BCC0E01202A1D0F0D0E02031
:100243000104C4C0E0C4B201C0F012002FD0F0D545
:10025300F0EB0200801205EA011D5301975800EEEE
:100263004C00EA42019B4F01A34401A3490103430C
:0802730001A955018D46018D22
:10027B0045018D4703495000F22D00F62E01192B35
:10028B0000FA2301172003322A00B24800000111A3
:10029B003F3F3F00790AA2D5200314300509B9105E
:1002AB00020404B9080104A2D5200602500104205F
:1002BB0002689202B509005034C0E07F2030031968
:1002CB007F30A20272067205500F1202F8C202C2F0
:1002DB0006C205C2087F30800F300503E9C0E0126B
:1002EB000046300503D0E0F9D0E0B509CC30051756
:1002FB007F30B9100C1200467F583004077F78808E
:10030B0003B908031200463002057F2D0200467F19
:10031B00202008F87F2B2006F322920280CF286E34
:10032B00756C6C2900D2011200033001F8C2017800
:10033B000930D50108F60200B22D5043495812007E
:10034B00032403B405004001E490034493120037E7
:0D035B00743A120037D203750904020197AD
:10058B00BB010CE58229F582E5833AF583E0225025
:10059B0006E92582F8E622BBFE06E92582F8E2226F
:0D05AB00E58229F582E5833AF583E4932289
:1005B800BB010689828A83F0225002F722BBFE0122
:0205C800F3221C
:1005CA00F8E0FBA3A3E0F925F0F0E58215827002BA
:0705DA001583E0FA38F0225E
:0905E100EBF0A3EAF0A3E9F0221B
:1005EA00D083D082F8E4937012740193700DA3A3A0
:1005FA0093F8740193F5828883E4737402936860B4
:06060A00EFA3A3A380DFB3
:00000001FF
