:040000000C943A0022
:14005400000000000000000000000000000000000000000098
:0B00680000000000000000000000008D
:14007400CFE5D4E0CDBFDEBFC051D0400AEA08830024EFE74D
:14008800F0E010E0EF37F10711F00192FBCF0083E4E5F0E00C
:14009C00A0E6B0E010E0E337F10721F0C89531960D92F9CF9C
:1400B0000E94C700FFCFA99AA89A05E010E0AFD0A99804E007
:1400C40010E0ABD0A8980895A998A89A04E010E0A4D0A99AD2
:1400D80005E010E0A0D0A998A8980895A998A89A04E010E05A
:1400EC0098D0A898A99A0895A99AA89A04E010E090D0A9987E
:14010000A89808950E9473016FEFA99A01E010E086D0A89AEE
:1401140041E003C06A9509F4442783B3826083BB8823C1F7D3
:14012800A898A99A042F0E94670108950E947301602F442756
:14013C000CC067FF02C0A99A01C0A998A89A04E010E067D029
:14015000A898660F4395483090F30E94670108950E94730156
:1401640066270DC0440FA89A83B3826083BB882309F04160FD
:1401780004E010E050D0A8986395683088F3042F0E946701F7
:14018C000895F89474D084B3836084BB85B38C7F85BB78940A
:1401A0003AC089DF0BE5C6DFDBDF009378009ADFD7DF0093CD
:1401B400790096DFD3DF00937A0092DFCFDF00937B008EDFF0
:1401C800CBDF00937C008ADFC7DF00937D0086DFC3DF0093B1
:1401DC007E0076DF0091780051D0009179004ED000917A00DF
:1401F0004BD000917B0048D000917C0045D000917D0042D07A
:1402040000917E003FD008E010E026D00CE211E004D0C5CFB3
:140218000895000008950E947501A80101C0F9DF1A01415092
:14022C0050402220D1F73320C1F70E947801089502C001504E
:14024000104000300107D9F7089509EC14E002C00150104069
:1402540000300107D9F708950E947501A80101C0F2DF1A0183
:14026800415050402220D1F73320C1F70E947801089588E923
:14027C008AB987E189B986E880BD08955D9BFECF0CB9089512
:140290000E947501A80104C0FA010191AF01F4DFFA0120802A
:1402A4002220C1F70E94780108950E947101622F580144272B
:1402B80005C0F50101915F01E3DF43954617C8F30E946A01C6
:1402CC000895E2E00C947901E4E00C947901FA92EA92DA9253
:1402E000CA92BA92AA927A936A935A934A930895E1E049911A
:1402F4005991E0FD089569917991E1FD0895A990B990E2FDB2
:100308000895C990D990E3FD0895E990F99008956A
:00000001FF
