:1006870041005F005E000100000000000000000064
:100697000000000000000000000000000000000053
:1006A70000000000004100610041006000410000BF
:0106B7000042
:1006540090007EEBF0A3EAF0A3E9F090007EE0FBCB
:10066400A3E0FAA3E0F9120036601790007EA3E439
:1006740075F00112004FA9F0FA120036FF1206DEDF
:0306840080D922F8
:030033000201893E
:10018900C0E0C083C082C0D075D000C000C006C026
:01019900075E
:10019A00AFBDEF12016301C20001C76001D168015E
:1001AA00D580021288025EA00228A80244B8025E24
:1001BA00C0025EC800000260D2C4020260D2C290CD
:1001CA000000E4F0020260C28280FE900000E0704B
:1001DA0018900060E5BCF0D2C29000007401F09063
:1001EA000060E090005FF0806D900061E5BCF0D2A5
:1001FA00C2E0FF90005FE0FE04F0741F2EF582E477
:10020A003400F583EFF0804E90005FE0241FF58202
:10021A00E43400F583E5BCF090005FE4803190009F
:10022A0060E090005FF0E0241FF582E43400F5837B
:10023A00E0F5BC90005FE004801590005FE0241FA9
:10024A00F582E43400F583E0F5BC90005FE004F049
:08025A00D2C28002D2C2C2C36D
:0F026200D007D006D000D0D0D082D083D0E032E9
:1006B90053B3F753B4F753B3EF53B4EFD294D29380
:0D06C900439B01D2AF75C1A0D2C6D2C222A0
:10000300E4F5B1F5B2F5B3F5B4F5ACF5ADFF7EC2E9
:100013007D01FC12031DD299D2AF1206B97FE87E8F
:0A002300037D007C0012056980F3E4
:10061B0053B1BF53B2BF53B17F53B27F75985043A1
:10062B008920438780438E1053C4DFAB07AA06A9EA
:10063B0005A8047F407E427D0F7C001200A1EF04D1
:09064B00F404F58DD28ED299223F
:10031D0090007A12015753B1BF53B2BF53B17F53FF
:10032D00B27F75985043878053C4F843C420900022
:10033D007AE0F8A3E0F9A3E0FAA3E0FB7F407E4268
:10034D007D0F7C001200A1C374FF9FFF74FF9EFE02
:10035D00E49DFDE49CFC78081201448FC690007A60
:10036D00E0F8A3E0F9A3E0FAA3E0FB7F407E427D35
:10037D000F7C001200A1C374FF9FFF8FC543C408FB
:03038D00D29922E0
:0706D6003098FDAF99C298B6
:0106DD0022FA
:0806DE00C2998F993099FD22A9
:1003900090006212015753B1FB53B2FB53B3BF53EA
:1003A000B4BF75F85075C40853C4DF900062E0F81C
:1003B000A3E0F9A3E0FAA3E0FB7F407E427D0F7C3F
:1003C000001200A1C374FF9FFF74FF9EFEE49DFD19
:1003D000E49CFC78081201448FC6900062E0F8A308
:1003E000E0F9A3E0FAA3E0FB7F407E427D0F7C00B2
:0E03F0001200A1C374FF9FFF8FC543C40822F3
:0706E60030F8FDAF9AC2F8E5
:0106ED0022EA
:0806EE00C2F98F9A30F9FD22D8
:10051000900066120157538EF7438901D28CE4FF95
:10052000FEFDFC900066E0F8A3E0F9A3E0FAA3E08A
:10053000FBC3120133602F758A7E758CFF308DFDF1
:10054000C28D900066E0FCA3E0FDA3E0FEA3E024E2
:10055000FFFFEE34FFFEED34FFFDEC34FFFC9000B6
:090560006612015780B8C28C221A
:1005690090007A120157538EF7438901D28CE4FF28
:10057900FEFDFC90007AE0F8A3E0F9A3E0FAA3E01D
:10058900FBC3120133602F758ACA758CFA308DFD51
:10059900C28D90007AE0FCA3E0FDA3E0FEA3E02475
:1005A900FFFFEE34FFFEED34FFFDEC34FFFC90005D
:0905B9007A12015780B8C28C22AD
:1005C20090006A120157538EEF438910D28EE4FFD6
:1005D200FEFDFC90006AE0F8A3E0F9A3E0FAA3E0D4
:1005E200FBC3120133602F758BEA758DCB308FFD03
:1005F200C28F90006AE0FCA3E0FDA3E0FEA3E0242A
:10060200FFFFEE34FFFEED34FFFDEC34FFFC900003
:090612006A12015780B8C28E2261
:1003FE0090006E12015753C9BF53C9DF43C910D2C3
:10040E00CAE4FFFEFDFC90006EE0F8A3E0F9A3E065
:10041E00FAA3E0FBC3120133602F75CC3075CDF813
:10042E0030CFFDC2CF90006EE0FCA3E0FDA3E0FE56
:10043E00A3E024FFFFEE34FFFEED34FFFDEC34FFAE
:0C044E00FC90006E12015780B8C2CA2258
:10045A0090007212015775C40743C408E4FFFEFDF9
:10046A00FC900072E0F8A3E0F9A3E0FAA3E0FBC372
:10047A00120133603275C52C75C6CFE5C430E4FB72
:10048A0053C4EF900072E0FCA3E0FDA3E0FEA3E0FA
:10049A0024FFFFEE34FFFEED34FFFDEC34FFFC9049
:0B04AA00007212015780B553C4F72206
:1004B50090007612015775C40743C408E4FFFEFD9A
:1004C500FC900076E0F8A3E0F9A3E0FAA3E0FBC313
:1004D500120133603275C5D875C6FFE5C430E4FB3B
:1004E50053C4EF900076E0FCA3E0FDA3E0FEA3E09B
:1004F50024FFFFEE34FFFEED34FFFDEC34FFFC90EE
:0B050500007612015780B553C4F722A6
:0300000002027188
:1002710075C7AA75C75575FD5A75C7AA75C755754E
:10028100FDA5787FE4F6D8FD9000007FFF7E03E4B2
:0C029100F0A3DFFCDEFA7581200202D829
:10029D00020003E493A3F8E493A34003F68001F274
:1002AD0008DFF48029E493A3F85407240CC8C33362
:1002BD00C4540F4420C8834004F456800146F6DF31
:1002CD00E4800B0102040810204080900687E47E34
:1002DD00019360BCA3FF543F30E509541FFEE49326
:1002ED00A360010ECF54C025E060A840B8E493A3ED
:1002FD00FAE493A3F8E493A3C8C582C8CAC583CA18
:10030D00F0A3C8C582C8CAC583CADFE9DEE780BECF
:0106B8000041
:10003600BB010689828A83E0225002E722BBFE02C8
:09004600E32289828A83E49322FB
:10004F00A3F8E0C5F025F0F0E58215827002158364
:06005F00E0C838F0E822C1
:1000650075F008758200EF2FFFEE33FECD33CDCC52
:1000750033CCC58233C5829BED9AEC99E5829840D5
:100085000CF582EE9BFEED9AFDEC99FC0FD5F0D6B2
:10009500E4CEFBE4CDFAE4CCF9A88222B800C1B9DC
:1000A5000059BA002DEC8BF084CFCECDFCE5F0CB1A
:1000B500F97818EF2FFFEE33FEED33FDEC33FCEB53
:1000C50033FB10D703994004EB99FB0FD8E5E4F90E
:1000D500FA227818EF2FFFEE33FEED33FDEC33FCFB
:1000E500C933C910D7059BE99A4007EC9BFCE99AEF
:1000F500F90FD8E0E4C9FAE4CCFB2275F010EF2F34
:10010500FFEE33FEED33FDCC33CCC833C810D70733
:100115009BEC9AE899400AED9BFDEC9AFCE899F86E
:0E0125000FD5F0DAE4CDFBE4CCFAE4C8F92201
:10013300EB9FF5F0EA9E42F0E99D42F0E89C45F022
:010143002299
:10014400E8600FECC313FCED13FDEE13FEEF13FF99
:03015400D8F122BD
:0C015700ECF0A3EDF0A3EEF0A3EFF0221B
:10016300D083D082F8E4937012740193700DA3A32B
:1001730093F8740193F5828883E47374029368603F
:06018300EFA3A3A380DF3F
:00000001FF
