:080E76003099FDC2998F992209
:10088500493243202753656E642053544127206520
:1008950072726F720D0A004932432077726974656E
:1008A500206F6B0D0A00493243202753656E642083
:1008B500534C412B5727206572726F720D0A004900
:1008C5003243202753656E642049324320486967C7
:1008D50068204279746520416464726573732720CA
:1008E5006572726F720D0A00493243202753656E97
:1008F5006420534C412B5227206572726F720D0A8A
:100905000049324320274E6F2041636B27206572D3
:10091500726F720D0A00493243202741636B27200D
:100925006572726F720D0A00493243205265616427
:10093500206572726F722C20746573742073746FE6
:10094500700D0A0031323334350D0A007265673097
:1009550032203D202562750D0A00000000000000D0
:100965000000000000000000000000000000000082
:100975000000000000000000000000000000000072
:02098500000070
:100DEE00900037EBF0A3EAF0A3E9F0900037E0FBB8
:100DFE00A3E0FAA3E0F912045E6018900037E0A3B6
:100E0E00E475F0011204C6A9F0FA12045EFF120E88
:040E1E008680D822D0
:100E640043B30843B40843B31043B41075BE09D266
:020E7400C62294
:100E4E00E5BD7011D209D2C4C2C330C308C2C6D226
:060E5E00C6C2C3C2C62299
:0E098700900031EFF0A3EBF0A3EAF0A3E9F04B
:10099500D2C5C2C330C3FDE5BD6408600DD2097B75
:1009A500FF7A087985120DEE806CC2C575BC26C22A
:1009B500C330C3FDE5BD64186004D20980589000BA
:1009C50031E0F5BCC2C330C3FDE5BD64286004D287
:1009D500098043E4FF900035E0FEEFC39E50279069
:1009E5000032E0FBA3E0FAA3E0F98F8275830012E1
:1009F5000477F5BCC2C330C3FDE5BD64286004D2ED
:100A05000980130F80CFD2C4C2C320C4FD7BFF7AF7
:0E0A150008799C120DEE300905120E4EC20932
:010A230022B0
:0E076900900031EFF0A3EBF0A3EAF0A3E9F06B
:10077700D2C5C2C330C3FDE5BD6408600ED2097B94
:10078700FF7A087985120DEE02087375BC26C2C57B
:10079700C2C330C3FDE5BD6418600ED2097BFF7A82
:1007A7000879AB120DEE020873900031E0F5BCC278
:1007B700C330C3FDE5BD6428600ED2097BFF7A080C
:1007C70079C4120DEE020873D2C5C2C330C3FDE56A
:1007D700BD6410600ED2097BFF7A087985120DEE91
:1007E700020873C2C575BC27C2C330C3FDE5BD642B
:1007F70040600DD2097BFF7A0879ED120DEE806C0F
:10080700E4900036F0900035E0FFA3E0C39F503B33
:10081700D2C2C2C330C3FDE5BD6450600DD2097BAF
:10082700FF7A097906120DEE8042900032E0FBA3B1
:10083700E0FAA3E0F9900036E0F582758300E5BCA5
:100847001204A4900036E004F080BAC2C2C2C330DA
:10085700C3FDE5BD6458600DD2097BFF7A09791B9A
:10086700120DEE8007C2C3D2C420C4FD30090E1298
:0D0877000E4E7BFF7A09792D120DEEC2099D
:010884002251
:100632007BFF7A09795F78097C007D017E007F0A61
:100642001204387BFF7A09796978137C007D017E78
:10065200007F0A1204387BFF7A097973781D7C00C7
:100662007D017E007F141204387F007EC27D017CF2
:1006720000120A24D299D2AF7BFF7A097949120D6E
:10068200EE120E647FE87E037D007C00120B7D90EB
:1006920000097408F0E4900013F07B017A007909F4
:1006A20090003504F07F821209877F0A7E007D0068
:1006B2007C00120B7D7B017A007913900035740166
:1006C200F07F821207697B017A00791D90003474F1
:1006D200FFF0A37409F0A37451F0900013E09000AE
:1006E20037F01200687B017A00791D120DEE7FE867
:1006F2007E037D007C00120B7D9000097409F0E4FA
:10070200900013F07B017A00790990003504F07FA4
:10071200821209877F0A7E007D007C00120B7D7B9E
:10072200017A0079139000357401F07F8212076913
:100732007B017A00791D90003474FFF0A37409F0F4
:10074200A37451F0900013E0900037F01200687B20
:10075200017A00791D120DEE7FE87E037D007C0098
:06076200120B7D0206915E
:01076800226E
:100B1D009000001205CE538EF75389F0438901D210
:100B2D008CE4FFFEFDFC900000E0F8A3E0F9A3E0EB
:100B3D00FAA3E0FBC31205AA6033758AF3758CFF27
:100B4D00308DFDC28D900000E0FCA3E0FDA3E0FE22
:100B5D00A3E0FF74FFEF24FFFFEE34FFFEED34FF43
:100B6D00FDEC34FFFC9000001205CE80B4C28C2247
:100CFB009000041205CE538EF7438901D28CE4FF8A
:100D0B00FEFDFC900004E0F8A3E0F9A3E0FAA3E0F9
:100D1B00FBC31205AA6033758A7E758CFF308DFD7F
:100D2B00C28D900004E0FCA3E0FDA3E0FEA3E0FF76
:100D3B0074FFEF24FFFFEE34FFFEED34FFFDEC34C8
:0D0D4B00FFFC9000041205CE80B4C28C2283
:100B7D009000311205CE538EF75389F0438901D27F
:100B8D008CE4FFFEFDFC900031E0F8A3E0F9A3E05A
:100B9D00FAA3E0FBC31205AA6033758ACA758CFAF5
:100BAD00308DFDC28D900031E0FCA3E0FDA3E0FE91
:100BBD00A3E0FF74FFEF24FFFFEE34FFFEED34FFE3
:100BCD00FDEC34FFFC9000311205CE80B4C28C22B6
:100D58009000591205CE538EEF438910D28EE4FFCE
:100D6800FEFDFC900059E0F8A3E0F9A3E0FAA3E047
:100D7800FBC31205AA6033758BEA758DCB308FFDE6
:100D8800C28F900059E0FCA3E0FDA3E0FEA3E0FFC2
:100D980074FFEF24FFFFEE34FFFEED34FFFDEC346B
:0D0DA800FFFC9000591205CE80B4C28E22CF
:100BDD0090005D1205CE53C9BF53C9DF43C910D272
:100BED00CAE4FFFEFDFC90005DE0F8A3E0F9A3E090
:100BFD00FAA3E0FBC31205AA603375CC3075CDF8AE
:100C0D0030CFFDC2CF90005DE0FCA3E0FDA3E0FE80
:100C1D00A3E0FF74FFEF24FFFFEE34FFFEED34FF82
:100C2D00FDEC34FFFC90005D1205CE80B4C2CA22EB
:100C3D009000611205CE75C40743C408E4FFFEFDA4
:100C4D00FC900061E0F8A3E0F9A3E0FAA3E0FBC398
:100C5D001205AA603675C52C75C6CFE5C430E4FB08
:100C6D0053C4EF900061E0FCA3E0FDA3E0FEA3E020
:100C7D00FF74FFEF24FFFFEE34FFFEED34FFFDECBC
:0F0C8D0034FFFC9000611205CE80B153C4F722F2
:100C9C009000651205CE75C40743C408E4FFFEFD41
:100CAC00FC900065E0F8A3E0F9A3E0FAA3E0FBC335
:100CBC001205AA603675C5D875C6FFE5C430E4FBCD
:100CCC0053C4EF900065E0FCA3E0FDA3E0FEA3E0BD
:100CDC00FF74FFEF24FFFFEE34FFFEED34FFFDEC5D
:0F0CEC0034FFFC9000651205CE80B153C4F7228F
:100DB50053B1BF53B2BF53B17F53B27F7598504300
:100DC5008920438780438E1053C4DFAB07AA06A949
:100DD50005A8047F407E427D0F7C00120518EF04B4
:090DE500F404F58DD28ED299229E
:100A24009000311205CE53B1BF53B2BF53B17F53BF
:100A3400B27F75985043878053C4F843C420900014
:100A440031E0F8A3E0F9A3E0FAA3E0FB7F407E42A3
:100A54007D0F7C00120518C374FF9FFF74FF9EFE78
:100A6400E49DFDE49CFC78081205BB8FC690003120
:100A7400E0F8A3E0F9A3E0FAA3E0FB7F407E427D27
:100A84000F7C00120518C374FF9FFF74FF9EFEE4E1
:0F0A94009DFDE49CFCEFE48FC543C408D299227A
:070E7E003098FDAF99C29806
:010E8500224A
:080E8600C2998F993099FD22F9
:100AA3009000691205CE53B1FB53B2FB53B3BF534E
:100AB300B4BF75F85075C40853C4DF900069E0F8FB
:100AC300A3E0F9A3E0FAA3E0FB7F407E427D0F7C25
:100AD30000120518C374FF9FFF74FF9EFEE49DFD83
:100AE300E49CFC78081205BB8FC6900069E0F8A36C
:100AF300E0F9A3E0FAA3E0FB7F407E427D0F7C0098
:100B0300120518C374FF9FFF74FF9EFEE49DFDE46E
:0A0B13009CFCEFE48FC543C40822E8
:070E8E0030F8FDAF9AC2F835
:010E9500223A
:080E9600C2F98F9A30F9FD2228
:03000000020E22CB
:100E220075C7AA75C75575FD5A75C7AA75C7557591
:100E3200FDA5787FE4F6D8FD9000007FFF7E03E4F5
:0C0E4200F0A3DFFCDEFA758180020632AE
:10036800E709F608DFFA8046E709F208DFFA803E77
:1003780088828C83E709F0A3DFFA8032E309F60864
:10038800DFFA8078E309F208DFFA807088828C83CC
:10039800E309F0A3DFFA806489828A83E0A3F60880
:1003A800DFFA805889828A83E0A3F208DFFA804C5A
:1003B80080D280FA80C680D4806980F28033801031
:1003C80080A680EA809A80A880DA80E280CA80339A
:1003D80089828A83ECFAE493A3C8C582C8CCC58312
:1003E800CCF0A3C8C582C8CCC583CCDFE9DEE780E2
:1003F8000D89828A83E493A3F608DFF9ECFAA9F061
:10040800EDFB2289828A83ECFAE0A3C8C582C8CCB6
:10041800C583CCF0A3C8C582C8CCC583CCDFEADECF
:10042800E880DB89828A83E493A3F208DFF980CC31
:1004380088F0EF60010E4E60C388F0ED2402B4042A
:100448000050B9F582EB2402B4040050AF232345D1
:0604580082239003B8733B
:10045E00BB010689828A83E0225002E722BBFE029C
:09046E00E32289828A83E49322CF
:10047700BB010CE58229F582E5833AF583E022503A
:1004870006E92582F8E622BBFE06E92582F8E22284
:0D049700E58229F582E5833AF583E493229E
:1004A400F8BB010DE58229F582E5833AF583E8F08E
:1004B400225006E92582C8F622BBFE05E92582C83A
:0204C400F22222
:1004C600A3F8E0C5F025F0F0E582158270021583E9
:0604D600E0C838F0E82246
:1004DC0075F008758200EF2FFFEE33FECD33CDCCD7
:1004EC0033CCC58233C5829BED9AEC99E58298405A
:1004FC000CF582EE9BFEED9AFDEC99FC0FD5F0D637
:10050C00E4CEFBE4CDFAE4CCF9A88222B800C1B960
:10051C000059BA002DEC8BF084CFCECDFCE5F0CB9E
:10052C00F97818EF2FFFEE33FEED33FDEC33FCEBD7
:10053C0033FB10D703994004EB99FB0FD8E5E4F992
:10054C00FA227818EF2FFFEE33FEED33FDEC33FC7F
:10055C00C933C910D7059BE99A4007EC9BFCE99A73
:10056C00F90FD8E0E4C9FAE4CCFB2275F010EF2FB8
:10057C00FFEE33FEED33FDCC33CCC833C810D707B8
:10058C009BEC9AE899400AED9BFDEC9AFCE899F8F3
:0E059C000FD5F0DAE4CDFBE4CCFAE4C8F92286
:1005AA00EB9FF5F0EA9E42F0E99D42F0E89C45F0A7
:0105BA00221E
:1005BB00E8600FECC313FCED13FDEE13FEEF13FF1E
:0305CB00D8F12242
:0C05CE00ECF0A3EDF0A3EEF0A3EFF022A0
:10000300E5082434F582E43400F583E00508229002
:100013000031300703900034E475F0011205EC025F
:10002300045E2000E97F2ED2008018EF540F249045
:10003300D43440D4FF30040BEF24BFB41A00500370
:100043002461FFE50960021509050CE50C70020542
:100053000B30070E900031E475F0011205ECEF024E
:1000630005DA020E767403D2078003E4C207F508AB
:10007300900031120603E4F509F50BF50CE5096070
:10008300077F2012004680F5750AFFC201C200C235
:1000930002C203C205C206C208120012FF700D306D
:1000A30007057F00120057AF0CAE0B22B4255FC2C9
:1000B300D5C204120012FF24D0B40A00501A75F0FE
:1000C3000A780930D50508B6FF0106C6A426F6202E
:1000D300D5047002D20380D924CFB41A00EF5004A0
:1000E300C2E5D204020258D20180C6D20080C0D237
:1000F3000280BCD2D580BAD20580B47F20120046DC
:100103002002077401B5090040F1120003FF120039
:1001130046020080D208D2068095120003FB12002B
:1001230003FA120003F94A4B700679297A037BFF1D
:1001330020022EE509602A7E008E82758300120458
:100143007760060EEE650A70F0C2D5EBC0E0EAC038
:10015300E0E9C0E0EE12029FD0E0F9D0E0FAD0E08F
:10016300FB12045EFF60AAEBC0E0EAC0E0E9C0E076
:10017300120046D0E02401F9D0E03400FAD0E0FBCD
:10018300E50A0460DCD50AD980877BFF7A02799B74
:10019300D202809C791080027908C206C2088008C6
:1001A300D2D5790A8004790AC2D5E50A047002F52A
:1001B3000AE4FAFDFEFF120003FC7B082001131280
:1001C3000003FD7B1030000A120003FE120003FF40
:1001D3007B20EC3382D592D55013C3E43000069FC5
:1001E300FFE49EFEE42001039DFDE49CFCE4CBF8C8
:1001F300C201EC700CCFCECDCCE824F8F870F380BC
:1002030017C3EF33FFEE33FEED33FDEC33FCEB337B
:10021300FB994002FB0FD8E9EB300105F8D0E0C4AD
:1002230048B201C0E00AEC4D4E4F78207B0070C20B
:10023300EAB50A0040BCC0E01202A1D0F0D0E02031
:100243000104C4C0E0C4B201C0F012002FD0F0D545
:10025300F0EB02008012060C011D5301975800EECB
:100263004C00EA42019B4F01A34401A3490103430C
:0802730001A955018D46018D22
:10027B0045018D4703495000F22D00F62E01192B35
:10028B0000FA2301172003322A00B24800000111A3
:10029B003F3F3F00790AA2D5200314300509B9105E
:1002AB00020404B9080104A2D5200602500104205F
:1002BB0002689202B509005034C0E07F2030031968
:1002CB007F30A20272067205500F1202F8C202C2F0
:1002DB0006C205C2087F30800F300503E9C0E0126B
:1002EB000046300503D0E0F9D0E0B509CC30051756
:1002FB007F30B9100C1200467F583004077F78808E
:10030B0003B908031200463002057F2D0200467F19
:10031B00202008F87F2B2006F322920280CF286E34
:10032B00756C6C2900D2011200033001F8C2017800
:10033B000930D50108F60200B22D5043495812007E
:10034B00032403B405004001E490034493120037E7
:0D035B00743A120037D203750904020197AD
:1005DA00BB010689828A83F0225002F722BBFE0100
:0205EA00F322FA
:1005EC00F8E0FBA3A3E0F925F0F0E5821582700298
:0705FC001583E0FA38F0223C
:09060300EBF0A3EAF0A3E9F022F8
:10060C00D083D082F8E4937012740193700DA3A37D
:10061C0093F8740193F5828883E473740293686091
:06062C00EFA3A3A380DF91
:00000001FF
