:040000000C94370025
:040044000C946100B7
:14005400000000000000000000000000000000000000000098
:05006800000000000093
:14006E00CFE5D4E0CDBFDEBFC051D0400AEA08830024E9E759
:14008200F0E010E0E937F10711F00192FBCF0083E4E5F0E018
:14009600A0E6B0E010E0ED36F10721F0C89531960D92F9CF99
:1400AA000E944101FFCF222426BE81E080B921B802B985E4CF
:1400BE0086BF08950E9470010E94590141B15527487F507048
:1400D2004039E0E05E0709F48FC080E990E0841795070CF420
:1400E60035C04037E0E05E0709F474C080E790E08417950736
:1400FA00ACF04036E0E05E0709F463C080E690E0841795078E
:14010E002CF04030450709F482C085C04836E0E05E0709F4E1
:140122005BC07FC04038E0E05E0709F45AC080E890E0841748
:14013600950734F04837E0E05E0709F44BC06FC04838E0E0DA
:14014A005E0709F44AC069C0403BE0E05E0709F464C080EBE0
:14015E0090E084179507B4F0403AE0E05E0709F44AC080EA32
:1401720090E08417950734F04839E0E05E0709F43BC04FC001
:14018600483AE0E05E0709F44AC049C0403CE0E05E0709F410
:14019A0039C080EC90E08417950734F0483BE0E05E0709F47C
:1401AE003AC039C0483CE0E05E0751F1483CE0E05E078CF139
:1401C200483FE0E05E0769F12CC000E836D086B78F70806C21
:1401D60086BF25C086B78F70806C86BF20C023B020927800A1
:1401EA000091780026D086B78F70806C86BF15C086B78F7084
:1401FE00806C86BF10C086B78F70806C86BF0BC086B78F7078
:14021200806886BF0AE54BDF04C086B78F70806D86BF0E94BE
:140226005C010E948701189588E98AB987E089B986E880BD88
:14023A0008955D9BFECF0CB908950E945901A80104C0FA0188
:14024E000191AF01F4DFFA0120802220C1F70E945C01089556
:140262000E945501622F5801442705C0F50101915F01E3DFCC
:1402760043954617C8F30E944E010895F89484B38C7F84BBE9
:14028A0085B3836085BB0AE50EDFCCDF7894FFCF0895E4E043
:14029E000C945D01FA92EA92DA92CA92BA92AA927A936A93EC
:1402B2005A934A930895E1E049915991E0FD089569917991CE
:1402C600E1FD0895A990B990E2FD0895C990D990E3FD08956C
:1402DA00E990F9900895FA93EA93BA93AA939A938A933A93C6
:1402EE002A931A930A939A928A927A926A925A924A923A9211
:140302002A921A920A920FB60A92089509900FBE099019903D
:14031600299039904990599069907990899099900991199107
:12032A002991399189919991A991B991E991F9910895D4
:00000001FF
