:080A52003099FDC2998F992231
:10017F00493243202753656E64205354412720652D
:10018F0072726F720D0A00493243202753656E64F5
:10019F0020534C412B5727206572726F720D0A0046
:1001AF00493243202753656E642073756220616462
:1001BF00647265737327206572726F720D0A00493E
:1001CF003243202757726974652044617461272078
:1001DF006572726F720D0A0049324320577269744B
:1001EF0065206572726F722C20746573742073743E
:1001FF006F700D0A00493243202753656E64204902
:10020F0032432048696768204279746520416464ED
:10021F007265737327206572726F720D0A0049320F
:10022F0043202753656E6420534C412B5227206582
:10023F0072726F720D0A0049324320274E6F2041B0
:10024F00636B27206572726F720D0A00493243206B
:10025F002741636B27206572726F720D0A00493256
:10026F00432052656164206572726F722C20746531
:10027F0073742073746F700D0A0073746172742E2F
:10028F002E2E2E2E2E2E2E2E2E2E2E2E2E2E2E2E7F
:10029F002E2E2E2E2E2E2E2E2E2E2E2E0D0A0061AF
:0F02AF00626364650D0A0036373839300D0A0076
:1009F80041000900410068005E000A000000000094
:100A080000000000000000000000000000000000DE
:100A180000000000000000000041006A0041006979
:010A280000CD
:1009C40090009BEBF0A3EAF0A3E9F090009BE0FB1E
:1009D400A3E0FAA3E0F9120003601890009BE0A3DF
:1009E400E475F00112006BA9F0FA120003FF120A79
:0409F4006280D82223
:100A400043B30843B40843B31043B41075BE09D28E
:020A5000C622BC
:100A2A00E5BD7011D200D2C4C2C330C308C2C6D257
:060A3A00C6C2C3C2C622C1
:0E03DA00900095EFF0A3EBF0A3EAF0A3E9F09A
:1003E800D2C5C2C330C3FDE5BD6408600ED2007B30
:1003F800FF7A01797F1209C402048EC2C575BCA0B8
:10040800C2C330C3FDE5BD6418600DD2007BFF7A1E
:100418000179961209C4806E900095E0F5BCC2C3BC
:1004280030C3FDE5BD6428600DD2007BFF7A0179F9
:10043800AF1209C48050E490009AF0900099E0FF50
:10044800A3E0C39F5039900096E0FBA3E0FAA3E035
:10045800F990009AE0F58275830012001CF5BCC281
:10046800C330C3FDE5BD6428600DD2007BFF7A016F
:1004780079CE1209C4800F90009AE004F080BCD2B3
:10048800C4C2C320C4FD30000E120A2AC2007BFF7A
:070498007A0179E71209C4A3
:01049F00223A
:0E02BE00900095EFF0A3EBF0A3EAF0A3E9F0B7
:1002CC00D2C5C2C330C3FDE5BD6408600ED2007B4D
:1002DC00FF7A01797F1209C40203C875BCA0C2C59C
:1002EC00C2C330C3FDE5BD6418600ED2007BFF7A3B
:1002FC000179961209C40203C8900095E0F5BCC2BE
:10030C00C330C3FDE5BD6428600ED2007BFF7A02CA
:10031C0079041209C40203C8D2C5C2C330C3FDE5B7
:10032C00BD6410600ED2007BFF7A01797F1209C484
:10033C000203C8C2C575BCA1C2C330C3FDE5BD6410
:10034C0040600DD2007BFF7A02792D1209C4806CBB
:10035C00E490009AF0900099E0FFA3E0C39F503B1B
:10036C00D2C2C2C330C3FDE5BD6450600DD2007B68
:10037C00FF7A0279461209C48042900096E0FBA3F2
:10038C00E0FAA3E0F990009AE0F582758300E5BCF1
:10039C0012004990009AE004F080BAC2C2C2C33085
:1003AC00C3FDE5BD6458600DD2007BFF7A02795B1A
:1003BC001209C48007C2C3D2C420C4FD30000E127F
:0D03CC000A2A7BFF7A02796D1209C4C20073
:0103D9002201
:1004A0007F007EC27D017C001205FAD299D2AF7B1B
:1004B000FF7A0279891209C4120A407F647E007DA6
:1004C000007C00120753D2807BFF7A0279AE900045
:1004D000997408F07F021203DA7F0A7E007D007CA7
:1004E000001207537B017A0079819000997408F01B
:1004F0007F021202BE7B017A0079811209C47FF467
:100500007E017D007C001207537BFF7A0279B69052
:1005100000997408F07F021203DA7F0A7E007D00E2
:100520007C001207537B017A00798190009974084E
:10053000F07F021202BE7B017A0079811209C47F2A
:0D054000F47E017D007C001207530204C60A
:01054D00228B
:1006F300900000120173538EF75389F0438901D29E
:100703008CE4FFFEFDFC900000E0F8A3E0F9A3E019
:10071300FAA3E0FBC312014F6033758AF3758CFFB4
:10072300308DFDC28D900000E0FCA3E0FDA3E0FE50
:10073300A3E0FF74FFEF24FFFFEE34FFFEED34FF71
:10074300FDEC34FFFC90000012017380B4C28C22D4
:1008D100900004120173538EF7438901D28CE4FF17
:1008E100FEFDFC900004E0F8A3E0F9A3E0FAA3E028
:1008F100FBC312014F6033758A7E758CFF308DFD0D
:10090100C28D900004E0FCA3E0FDA3E0FEA3E0FFA4
:1009110074FFEF24FFFFEE34FFFEED34FFFDEC34F6
:0D092100FFFC90000412017380B4C28C2210
:10075300900095120173538EF75389F0438901D2A8
:100763008CE4FFFEFDFC900095E0F8A3E0F9A3E024
:10077300FAA3E0FBC312014F6033758ACA758CFA82
:10078300308DFDC28D900095E0FCA3E0FDA3E0FE5B
:10079300A3E0FF74FFEF24FFFFEE34FFFEED34FF11
:1007A300FDEC34FFFC90009512017380B4C28C22DF
:10092E0090006B120173538EEF438910D28EE4FF49
:10093E00FEFDFC90006BE0F8A3E0F9A3E0FAA3E063
:10094E00FBC312014F6033758BEA758DCB308FFD73
:10095E00C28F90006BE0FCA3E0FDA3E0FEA3E0FFDE
:10096E0074FFEF24FFFFEE34FFFEED34FFFDEC3499
:0D097E00FFFC90006B12017380B4C28E224A
:1007B30090006F12017353C9BF53C9DF43C910D2ED
:1007C300CAE4FFFEFDFC90006FE0F8A3E0F9A3E0AC
:1007D300FAA3E0FBC312014F603375CC3075CDF83B
:1007E30030CFFDC2CF90006FE0FCA3E0FDA3E0FE9D
:1007F300A3E0FF74FFEF24FFFFEE34FFFEED34FFB1
:10080300FDEC34FFFC90006F12017380B4C2CA2266
:1008130090007312017375C40743C408E4FFFEFD1F
:10082300FC900073E0F8A3E0F9A3E0FAA3E0FBC3B4
:1008330012014F603675C52C75C6CFE5C430E4FB95
:1008430053C4EF900073E0FCA3E0FDA3E0FEA3E03C
:10085300FF74FFEF24FFFFEE34FFFEED34FFFDECEA
:0F08630034FFFC90007312017380B153C4F7226D
:1008720090007712017375C40743C408E4FFFEFDBC
:10088200FC900077E0F8A3E0F9A3E0FAA3E0FBC351
:1008920012014F603675C5D875C6FFE5C430E4FB5A
:1008A20053C4EF900077E0FCA3E0FDA3E0FEA3E0D9
:1008B200FF74FFEF24FFFFEE34FFFEED34FFFDEC8B
:0F08C20034FFFC90007712017380B153C4F7220A
:10098B0053B1BF53B2BF53B17F53B27F759850432E
:10099B008920438780438E1053C4DFAB07AA06A977
:1009AB0005A8047F407E427D0F7C001200BDEF0442
:0909BB00F404F58DD28ED29922CC
:1005FA0090009512017353B1BF53B2BF53B17F53E9
:10060A00B27F75985043878053C4F843C420900042
:10061A0095E0F8A3E0F9A3E0FAA3E0FB7F407E426D
:10062A007D0F7C001200BDC374FF9FFF74FF9EFE06
:10063A00E49DFDE49CFC78081201608FC690009549
:10064A00E0F8A3E0F9A3E0FAA3E0FB7F407E427D55
:10065A000F7C001200BDC374FF9FFF74FF9EFEE46F
:0F066A009DFDE49CFCEFE48FC543C408D29922A8
:070A5A003098FDAF99C2982E
:010A61002272
:080A6200C2998F993099FD2221
:1006790090007B12017353B1FB53B2FB53B3BF53C9
:10068900B4BF75F85075C40853C4DF90007BE0F817
:10069900A3E0F9A3E0FAA3E0FB7F407E427D0F7C53
:1006A900001200BDC374FF9FFF74FF9EFEE49DFD11
:1006B900E49CFC78081201608FC690007BE0F8A3E7
:1006C900E0F9A3E0FAA3E0FB7F407E427D0F7C00C6
:1006D9001200BDC374FF9FFF74FF9EFEE49DFDE4FD
:0A06E9009CFCEFE48FC543C4082217
:070A6A0030F8FDAF9AC2F85D
:010A71002262
:080A7200C2F98F9A30F9FD2250
:0300000002054EA8
:10054E0075C7AA75C75575FD5A75C7AA75C755756E
:10055E00FDA5787FE4F6D8FD9000007FFF7E03E4D2
:0C056E00F0A3DFFCDEFA7581800205B509
:10057A000204A0E493A3F8E493A34003F68001F2F3
:10058A0008DFF48029E493A3F85407240CC8C33382
:10059A00C4540F4420C8834004F456800146F6DF51
:1005AA00E4800B01020408102040809009F8E47EE0
:1005BA00019360BCA3FF543F30E509541FFEE49346
:1005CA00A360010ECF54C025E060A840B8E493A30D
:1005DA00FAE493A3F8E493A3C8C582C8CAC583CA38
:1005EA00F0A3C8C582C8CAC583CADFE9DEE780BEF0
:010A290000CC
:10000300BB010689828A83E0225002E722BBFE02FB
:09001300E32289828A83E493222E
:10001C00BB010CE58229F582E5833AF583E0225099
:10002C0006E92582F8E622BBFE06E92582F8E222E3
:0D003C00E58229F582E5833AF583E49322FD
:10004900F8BB010DE58229F582E5833AF583E8F0ED
:10005900225006E92582C8F622BBFE05E92582C899
:02006900F22281
:10006B00A3F8E0C5F025F0F0E58215827002158348
:06007B00E0C838F0E822A5
:1000810075F008758200EF2FFFEE33FECD33CDCC36
:1000910033CCC58233C5829BED9AEC99E5829840B9
:1000A1000CF582EE9BFEED9AFDEC99FC0FD5F0D696
:1000B100E4CEFBE4CDFAE4CCF9A88222B800C1B9C0
:1000C1000059BA002DEC8BF084CFCECDFCE5F0CBFE
:1000D100F97818EF2FFFEE33FEED33FDEC33FCEB37
:1000E10033FB10D703994004EB99FB0FD8E5E4F9F2
:1000F100FA227818EF2FFFEE33FEED33FDEC33FCDF
:10010100C933C910D7059BE99A4007EC9BFCE99AD2
:10011100F90FD8E0E4C9FAE4CCFB2275F010EF2F17
:10012100FFEE33FEED33FDCC33CCC833C810D70717
:100131009BEC9AE899400AED9BFDEC9AFCE899F852
:0E0141000FD5F0DAE4CDFBE4CCFAE4C8F922E5
:10014F00EB9FF5F0EA9E42F0E99D42F0E89C45F006
:01015F00227D
:10016000E8600FECC313FCED13FDEE13FEEF13FF7D
:03017000D8F122A1
:0C017300ECF0A3EDF0A3EEF0A3EFF022FF
:00000001FF
