:1006C70041005F005E000100000000000000000024
:1006D7000000000000000000000000000000000013
:1006E700000000000041006100410060004100007F
:0106F7000002
:1006940090007EEBF0A3EAF0A3E9F090007EE0FB8B
:1006A400A3E0FAA3E0F9120036601790007EA3E4F9
:1006B40075F00112004FA9F0FA120036FF1207017B
:0306C40080D922B8
:030033000201893E
:10018900C0E0C083C082C0D075D000C000C006C026
:01019900075E
:10019A00AFBDEF12016301C20001C76001D168015E
:1001AA00D5800218880264A0022EA8024AB8026406
:1001BA00C00264C800000266D2C4020266D2C290BB
:1001CA000000E4F0020266C28280FE900000E07045
:1001DA0018900060E5BCF0D2C2900000E004F090F4
:1001EA000060E090005FF08073900061E5BCF0D29F
:1001FA00C2E0FF90005FE0FE04F0741F2EF582E477
:10020A003400F583EFF0900000E004F0804E900097
:10021A005FE0241FF582E43400F583E5BCF090002A
:10022A005FE48031900060E090005FF0E0241FF509
:10023A0082E43400F583E0F5BC90005FE0048015A9
:10024A0090005FE0241FF582E43400F583E0F5BCFA
:0E025A0090005FE004F0D2C28002D2C2C2C3A4
:0F026800D007D006D000D0D0D082D083D0E032E3
:1006210053B3F753B4F753B3EF53B4EFD294D29318
:10063100A2AF920075C7AA75C75575910143B24023
:1006410075C7AA75C755E4F591A20092AF439B0106
:0A065100D2AF75C1A0D2C6D2C222FA
:10000300E4F5B1F5B2F5B3F5B4F5ACF5ADFF7EC2E9
:100013007D01FC120323D299D2AF1206217FE87E21
:0A002300037D007C0012056F80F3DE
:10065B0053B1BF53B2BF53B17F53B27F7598504361
:10066B008920438780438E1053C4DFAB07AA06A9AA
:10067B0005A8047F407E427D0F7C001200A1EF0491
:09068B00F404F58DD28ED29922FF
:1003230090007A12015753B1BF53B2BF53B17F53F9
:10033300B27F75985043878053C4F843C42090001C
:100343007AE0F8A3E0F9A3E0FAA3E0FB7F407E4262
:100353007D0F7C001200A1C374FF9FFF74FF9EFEFC
:10036300E49DFDE49CFC78081201448FC690007A5A
:10037300E0F8A3E0F9A3E0FAA3E0FB7F407E427D2F
:100383000F7C001200A1C374FF9FFF8FC543C408F5
:03039300D29922DA
:0706F9003098FDAF99C29893
:0107000022D6
:08070100C2998F993099FD2285
:1003960090006212015753B1FB53B2FB53B3BF53E4
:1003A600B4BF75F85075C40853C4DF900062E0F816
:1003B600A3E0F9A3E0FAA3E0FB7F407E427D0F7C39
:1003C600001200A1C374FF9FFF74FF9EFEE49DFD13
:1003D600E49CFC78081201448FC6900062E0F8A302
:1003E600E0F9A3E0FAA3E0FB7F407E427D0F7C00AC
:0E03F6001200A1C374FF9FFF8FC543C40822ED
:0707090030F8FDAF9AC2F8C1
:0107100022C6
:08071100C2F98F9A30F9FD22B4
:10051600900066120157538EF7438901D28CE4FF8F
:10052600FEFDFC900066E0F8A3E0F9A3E0FAA3E084
:10053600FBC3120133602F758A7E758CFF308DFDEB
:10054600C28D900066E0FCA3E0FDA3E0FEA3E024DC
:10055600FFFFEE34FFFEED34FFFDEC34FFFC9000B0
:090566006612015780B8C28C2214
:10056F0090007A120157538EF7438901D28CE4FF22
:10057F00FEFDFC90007AE0F8A3E0F9A3E0FAA3E017
:10058F00FBC3120133602F758ACA758CFA308DFD4B
:10059F00C28D90007AE0FCA3E0FDA3E0FEA3E0246F
:1005AF00FFFFEE34FFFEED34FFFDEC34FFFC900057
:0905BF007A12015780B8C28C22A7
:1005C80090006A120157538EEF438910D28EE4FFD0
:1005D800FEFDFC90006AE0F8A3E0F9A3E0FAA3E0CE
:1005E800FBC3120133602F758BEA758DCB308FFDFD
:1005F800C28F90006AE0FCA3E0FDA3E0FEA3E02424
:10060800FFFFEE34FFFEED34FFFDEC34FFFC9000FD
:090618006A12015780B8C28E225B
:1004040090006E12015753C9BF53C9DF43C910D2BC
:10041400CAE4FFFEFDFC90006EE0F8A3E0F9A3E05F
:10042400FAA3E0FBC3120133602F75CC3075CDF80D
:1004340030CFFDC2CF90006EE0FCA3E0FDA3E0FE50
:10044400A3E024FFFFEE34FFFEED34FFFDEC34FFA8
:0C045400FC90006E12015780B8C2CA2252
:1004600090007212015775C40743C408E4FFFEFDF3
:10047000FC900072E0F8A3E0F9A3E0FAA3E0FBC36C
:10048000120133603275C52C75C6CFE5C430E4FB6C
:1004900053C4EF900072E0FCA3E0FDA3E0FEA3E0F4
:1004A00024FFFFEE34FFFEED34FFFDEC34FFFC9043
:0B04B000007212015780B553C4F72200
:1004BB0090007612015775C40743C408E4FFFEFD94
:1004CB00FC900076E0F8A3E0F9A3E0FAA3E0FBC30D
:1004DB00120133603275C5D875C6FFE5C430E4FB35
:1004EB0053C4EF900076E0FCA3E0FDA3E0FEA3E095
:1004FB0024FFFFEE34FFFEED34FFFDEC34FFFC90E8
:0B050B00007612015780B553C4F722A0
:0300000002027782
:1002770075C7AA75C75575FD5A75C7AA75C7557548
:10028700FDA5787FE4F6D8FD9000007FFF7E03E4AC
:0C029700F0A3DFFCDEFA7581200202DE1D
:1002A300020003E493A3F8E493A34003F68001F26E
:1002B30008DFF48029E493A3F85407240CC8C3335C
:1002C300C4540F4420C8834004F456800146F6DF2B
:1002D300E4800B01020408102040809006C7E47EEE
:1002E300019360BCA3FF543F30E509541FFEE49320
:1002F300A360010ECF54C025E060A840B8E493A3E7
:10030300FAE493A3F8E493A3C8C582C8CAC583CA11
:10031300F0A3C8C582C8CAC583CADFE9DEE780BEC9
:0106F8000001
:10003600BB010689828A83E0225002E722BBFE02C8
:09004600E32289828A83E49322FB
:10004F00A3F8E0C5F025F0F0E58215827002158364
:06005F00E0C838F0E822C1
:1000650075F008758200EF2FFFEE33FECD33CDCC52
:1000750033CCC58233C5829BED9AEC99E5829840D5
:100085000CF582EE9BFEED9AFDEC99FC0FD5F0D6B2
:10009500E4CEFBE4CDFAE4CCF9A88222B800C1B9DC
:1000A5000059BA002DEC8BF084CFCECDFCE5F0CB1A
:1000B500F97818EF2FFFEE33FEED33FDEC33FCEB53
:1000C50033FB10D703994004EB99FB0FD8E5E4F90E
:1000D500FA227818EF2FFFEE33FEED33FDEC33FCFB
:1000E500C933C910D7059BE99A4007EC9BFCE99AEF
:1000F500F90FD8E0E4C9FAE4CCFB2275F010EF2F34
:10010500FFEE33FEED33FDCC33CCC833C810D70733
:100115009BEC9AE899400AED9BFDEC9AFCE899F86E
:0E0125000FD5F0DAE4CDFBE4CCFAE4C8F92201
:10013300EB9FF5F0EA9E42F0E99D42F0E89C45F022
:010143002299
:10014400E8600FECC313FCED13FDEE13FEEF13FF99
:03015400D8F122BD
:0C015700ECF0A3EDF0A3EEF0A3EFF0221B
:10016300D083D082F8E4937012740193700DA3A32B
:1001730093F8740193F5828883E47374029368603F
:06018300EFA3A3A380DF3F
:00000001FF
